:0200000490006A
:1000000000E2002081040090D9A30090399A00906A
:10001000C9A20090E91B009001BC00900000000004
:10002000000000000000000000000000B9A60090E1
:100030000922009000000000E1A3009001A70090B9
:100040009B0400909B0400909B0400909B040090F4
:100050009B0400909B0400909B0400909B040090E4
:100060009B0400909B0400909B040090F11B009067
:10007000011C00909B0400909B0400909B04009046
:100080009B0400909B0400909B0400909B040090B4
:10009000712200909B0400909B0400909B040090B0
:1000A0009B0400909B0400909B0400909B04009094
:1000B0009B0400909B0400909B0400909B04009084
:1000C0009B0400909B0400909B0400909B04009074
:1000D0009B04009011BB00909B040090A9BB009072
:1000E0009B0400909B0400909B0400909B04009054
:1000F0009B0400909B0400909B0400909B04009044
:100100009B0400909B0400909B0400909B04009033
:100110009B0400909B0400909B0400909B04009023
:100120009B0400909B0400909B0400909B04009013
:100130009B04009000000000000000009B04009061
:100140009B0400909B0400909B0400909B040090F3
:100150009B0400909B0400909B0400909B040090E3
:100160009B0400909B0400909B0400909B040090D3
:100170009B0400909B0400909B0400909B040090C3
:100180009B0400909B0400909B0400909B040090B3
:100190009B0400909B0400909B0400909B040090A3
:1001A000699A00909B040090111C00909B040090A1
:1001B0009B0400909B0400909B0400909B04009083
:1001C0009B0400909B0400900000000000000000D1
:1001D00000000000000000009B04009000000000F0
:1001E000000000000000000000000000000000000F
:1001F00000000000000000009B0400909B040090A1
:100200009B0400909B040090000000009B04009061
:100210009B040090B1A8009019A900909B04009045
:100220009B0400909B0400909B0400900000000041
:100230009B0400909B040090000000009B04009031
:100240009B0400909B0400909B0400909B040090F2
:100250009B0400909B0400909B0400909B040090E2
:100260009B0400909B0400909B0400909B040090D2
:100270009B0400909B0400909B04009000000000F1
:100280009B0400909B040090000000009B040090E1
:10029000000000009B0400909B0400909B040090D1
:1002A0009B0400909B0400909B04009000F002F8D7
:1002B00000F0D6F814A696E8000CB244B344DA4530
:1002C00001D100F0CDF8BAE80F000FA696E8300093
:1002D000A5EB040504EB0607AAEB0704A7F1010749
:1002E0004FEA15154FEA3414A4F10104AC4201D3CE
:1002F00000F0B6F813F0010F18BFFB1A43F001032A
:1003000000F001F8DBE71847D4001B0004011B00D4
:100310000A444FF0000C10F8013B13F0070408BF2B
:1003200010F8014B1D1108BF10F8015B641E05D0C9
:1003300010F8016B641E01F8016BF9D113F0080F7E
:100340001EBF10F8014BAD1C0C1B09D16D1E58BF10
:1003500001F801CBFAD505E014F8016B01F8016B47
:100360006D1EF9D59142D6D370470000103A24BFD4
:1003700078C878C1FAD8520724BF30C830C144BF0A
:1003800004680C60704700007047000000230024E0
:1003900000250026103A28BF78C1FBD8520728BF95
:1003A00030C148BF0B6070476E2900F0658370292B
:1003B00000F0BF84662901F0D8A7652901F0D5A710
:1003C000672901F0D2A7612901F0D1A703681B0AB0
:1003D00028BF41F08001692900F01283642900F0F0
:1003E0000F83752900F00C836F2900F04D84782964
:1003F00000F08B84E92900F0E783E42900F0E4832E
:10040000F52900F0E183EF2900F04A84F82900F093
:100410008A840368DB0928BF41F08001632900F06A
:100420006983732900F06E83E32901F0C180F32909
:1004300001F0C680002070471FB541F089FF01F030
:1004400015F904000020002141F06CFF401C6060A1
:100450000020002141F050FFE0601FBD10B510BD2D
:1004600001F0D6F81146FFF7E7FF36F029FE01F05C
:10047000B3F903B4FFF7F2FF03BC0EF02DF900004F
:100480000948804709480047FEE7FEE7FEE7FEE728
:10049000FEE7FEE7FEE7FEE7FEE7FEE70448054964
:1004A000054A064B70470000F1A70090AD0200908E
:1004B00000D6002000E2002000DA002000DA002050
:1004C000704753EA020C00F069802DE9F04B4FF0C1
:1004D0000006002B1FBFB3FA83F503FA05F424FAD4
:1004E00005F65E4012BF1643B2FA82F502FA05F431
:1004F000C5F120051EBF22FA05FC44EA0C04203594
:1005000056EA044C4FEA144418BF641C4FF000082C
:100510004FF00009904271EB030C39D3002919BF49
:10052000B1FA81F701FA07F6B0FA80F700FA07F698
:10053000C7F120071EBF20FA07FC46EA0C06203749
:10054000B6FBF4FCA7EB0507103F07F01F0BCBF140
:1005500020062CFA06F60CFA0BFB44BFB346002625
:10056000202FA4BF5E464FF0000B5BEA060C08BFCD
:100570004FF0010B19EB0B0948EB0608ABFB027CB3
:1005800006FB02CC0BFB03CCC01B71EB0C01C1E7DB
:100590000B46024641464846BDE8F08B13B508437A
:1005A00018BF4FF0FF300146AFF30080BDE81C409C
:1005B000704700007CB51D4616460C00009007D021
:1005C0004142A14202D32044401E01E04FF0FF30DF
:1005D000064B7B442A4669460190304600F065FA96
:1005E000002C02D0009A002111707CBDFB04000099
:1005F00070B50C460546012A05D02878800600D53E
:10060000EA69002302E0012305E05B1C934202D269
:10061000E05C0028F9D1A869E618C01AA861286A28
:1006200018442862284600F0B1F904E0D5E9012118
:1006300014F8010B9047B442F8D3284600F0BCF9F7
:1006400070BD00002DE9F05F894604464FF0000AB6
:10065000DFF874B1FB44C0F820A02046E168884769
:10066000002874D0252806D0D4E901219047206ABB
:10067000401C2062F1E700265F462046E16888477B
:100680002028054607DB312D05D2781910F8200CFB
:1006900008B10643F1E7B00701D526F00406C4F817
:1006A0001CA00027C4F818A02A2D09D0284641F024
:1006B0001BFE38B304EB8708303DC8F8185019E02A
:1006C00059F8041B204604EB87029161E1688847D2
:1006D000012F054618D1E069002820DA26F020060F
:1006E0001DE0D8F8180000EB800005EB4000303822
:1006F000C8F818002046E1688847054641F0F4FD37
:100700000028EED1012F0AD02E2D08D12046E16815
:1007100088477F1C0546022F46F02006C4DBA069EF
:10072000002803DA404246F00106A061F00701D03C
:1007300026F010066C2D0BD0682D09D04C2D39D029
:100740006A2D35D0742D35D07A2D33D016E038E0AF
:10075000E1682F4620468847B842054609D16C2FEC
:1007600026D04FF48060E16806432046884705465E
:1007700004E06C2F1AD04FF4807006430DB3A5F13E
:100780004100192802D8203546F400664A46294619
:10079000204626604E46FFF707FE80B101280BD0A9
:1007A000F61D26F0070000F1080956E74020E4E7AF
:1007B0008020D8E70020D6E706F104094DE7284657
:1007C00052E7206ABDE8F09F1A1D040040EA0103C9
:1007D000024630B59B0710D14FF0013400E008C24B
:1007E00008C91D1B9D4315EAC41FF8D013F0FF0173
:1007F00002F8011B0DD01B0AF8E711F8013B002B92
:1008000002F8013B05D011F8013B002B02F8013B37
:10081000F3D130BD10B5431C02E010F8011B71B1DB
:100820008107FAD14FF0013202C88C1A8C4314EAC6
:10083000C211F9D0C01A0A0603D0C01E10BDC01ADA
:1008400010BD0A0401D0801E10BD0902FCD0401E5C
:1008500010BD02F0FF0343EA032242EA024200F025
:100860000AB802F0FF0343EA032242EA024200F020
:1008700024B84FF000020429C0F0128010F0030CDD
:1008800000F01B80CCF1040CBCF1020F18BF00F883
:10089000012BA8BF20F8022BA1EB0C0100F00DB832
:1008A0005FEAC17C24BF00F8012B00F8012B48BF90
:1008B00000F8012B70474FF0000200B51346944634
:1008C0009646203922BFA0E80C50A0E80C50B1F1A8
:1008D0002001BFF4F7AF090728BFA0E80C5048BFBC
:1008E0000CC05DF804EB890028BF40F8042B08BF5A
:1008F000704748BF20F8022B11F0804F18BF00F856
:10090000012B70470000000030B44FF0013C50F85C
:10091000042BCCFA52F451F8043BD51A20D1FCB97F
:1009200050F8042BCCFA52F451F8043BD51A17D1E5
:10093000B4B950F8042BCCFA52F451F8043BD51A50
:100940000ED16CB950F8042BCCFA52F451F8043B98
:10095000D51A05D1002CDAD030BC4FF0000070471A
:1009600029BAB1FA81F111F01801D1F120008440C7
:10097000F2D1CA40CB4012F0FF0213F0FF0330BCAB
:10098000D01A7047704770477047704770B504467B
:1009900085690068C10601D5302600E02026C00721
:1009A00007D070BDD4E9012130469047206A401C31
:1009B00020626D1EF6D570BD70B50446856900785D
:1009C000C00707D170BDD4E9012120209047206ADB
:1009D000401C20626D1EF6D570BD09684A0501D520
:1009E00040B27047C905FCD500B2704709684A0596
:1009F00001D5C0B27047C905FCD580B27047000070
:100A00002DE9F0410646002410687529314616A5E7
:100A100010D0FFF7E2FF002802DA404213A507E0FA
:100A200031688A0701D512A502E0490704D511A54E
:100A3000012401E0FFF7DAFF00210A2206F1240772
:100A400009E0B0FBF2FCB0FBF2F302FB1C0030301B
:100A500078541846491C0028F3D123462A463046CC
:100A6000BDE8F04100F0B5B9000000002D00000025
:100A70002B0000002000000011680268006A530586
:100A800001D508700AE0D30501D5088006E01306F9
:100A900003D5C217C1E9000200E0086001207047D9
:100AA00001694A1C02610878704700B58FB0CDE932
:100AB00001310021059105497944CDE90310114622
:100AC0006846FFF7BFFD0FB000BD0000E5FFFFFF68
:100AD000D1E900239A4202D2531C0B601070704778
:100AE00010B5436913B1AFF3008001E0FFF780FD5B
:100AF000012010BD127800F124010A7000224A7012
:100B00000122EDE711684FF0FF32E9E72DE9FF5FC1
:100B100015468A460446DFF8AC80F8440027D8E939
:100B200000103E46CDE9001010E03AF816106A4673
:100B300002A800F049FD411C07D02178890603D5A1
:100B4000E269391891420DD80744761C2078800656
:100B500002D5E069B84205DDAE42E6DB3AF81600A0
:100B60000028E2D1A069C01BA0612046FFF70EFF5C
:100B7000D8E90010CDE90010002017E03AF818106D
:100B80006A4602A800F020FDB0F1FF3F81460BD07D
:100B900000250DF1080B05E0D4E901211BF8050043
:100BA00090476D1C4D45F7D308F10100B0428046D7
:100BB000E4DB206A384420622046FFF7FDFEBDE8F2
:100BC000FF9F0000661804002DE9F0418046D21D09
:100BD00022F007020025D2E90002F52915A614D05B
:100BE000011E72F1000106DA0023D0EB030063EB73
:100BF000020211A608E0D8F800108B0701D50FA655
:100C000002E0490701D50EA601251146002408F18E
:100C1000240704E000F098F830323A55641C50EA9A
:100C20000102F7D12B46324621464046BDE8F0414D
:100C300000F0CFB8000000002D0000002B000000E5
:100C40002000000030B4002100F1240408E002F08C
:100C50000705D208303542EA4372DB086554491C67
:100C600052EA0305F3D10468002310A2250708D532
:100C700004F020040C4304D0C46901230CA2641EB8
:100C8000C46130BC00F0A5B810B504462146106818
:100C9000FFF7ACFE02462046BDE810400023D1E736
:100CA000D21D22F00701D1E90023CBE700000000AC
:100CB00030000000F0B40D460188090502D5214C32
:100CC0007C4402E01F4C7C440E34002100F12406D9
:100CD00008E002F00F071209E75D42EA03721B0900
:100CE0007754491C52EA0307F3D102780023120714
:100CF00004D5702D06D009B1022311342246F0BC70
:100D000000F067B801231034F8E770B504460D46CB
:100D100021461068FFF76AFE024629462046BDE8D4
:100D200070400023C6E7D21D22F00703D3E9002359
:100D3000C0E70368126843F0200303600823C3611F
:100D40000023B7E7C816040030B5B0F10A0271F10C
:100D500000034FEA900E4EEA817EB0EB0E0061EB8D
:100D600091014FEA101E4EEA017E10EB0E0041EB9E
:100D700011114FEA102E4EEA016E10EB0E0041EBFE
:100D800011214FEA104E4EEA014E10EB0E0041EBDE
:100D90001141401841F100014FEAD00040EA417092
:100DA0004FEAD1014FEA810444EA907410EB8005C8
:100DB00044EB01046D1944EB0404521BA3414FF0B2
:100DC000000348BF0A3200D530BD401C41F100018C
:100DD00030BD2DE9F0470D4699469246044600F194
:100DE00024080168880604D5E06921F0100121601B
:100DF00000E00120A84201DD471B00E00027A169B7
:100E00007A1902EB0900081AA0612078C00602D402
:100E10002046FFF7BBFD002608E0D4E901211AF8BF
:100E200006009047206A401C761C20624E45F4DB89
:100E30002078C0060AD52046FFF7A8FD06E0D4E9D1
:100E4000012130209047206A401C2062381EA7F103
:100E50000107F4DC07E0D4E9012118F80500904708
:100E6000206A401C2062281EA5F10105F3DC204603
:100E7000FFF7A2FD2078000602D50220BDE8F0872A
:100E80000120FBE72DE9FF4F0C461E464FF0FF37D0
:100E90008BB0D2E90001DDF860800A908A46C1F388
:100EA0000A5505B93D46002108464FF00000BAF149
:100EB000000F00F4400005DA00EB80004FF4400121
:100EC00001EA50004FEA9059B9F1010F00DDB9462F
:100ED0000A9850EA4A000ED044F61050A5F2FF35A9
:100EE00045432F14B8F1000F1ED07542291E1EDD98
:100EF000C9F100021CE0B8F1010F4FF0000001D071
:100F0000302103E0F24305E02154401CB042FBDBFA
:100F100030460022002121540B99C1F80880C1E914
:100F200000200FB0BDE8F08FBD1B6D1CDEE74A4608
:100F300000DA694206A800F0DDFB06AB93E8070083
:100F400003AB83E8070050460A9940F0ECFD8DE8BA
:100F50000700A0F500501F3800900398002D0ADD0F
:100F600042F21F014A460844002303A90390684641
:100F700041F056F809E0A0F500504A461F3800231A
:100F800003A90390684641F060F88DE8070000046B
:100F9000000C03D04FF0FF30410800E01046B8F1DC
:100FA000000F03D00022009215461EE0751E05D4E6
:100FB000FFF7CAFE303262556D1EF9D5B3460122E5
:100FC000084302D000227F1C04E02078302801D1A1
:100FD00000227F1E002A099784D01DE0112D07DA18
:100FE000FFF7B2FE303262556D1C50EA0102F5D1B6
:100FF000084302D00098C8B10EE00021681E05E049
:10100000235C625C63542254401E491C8142F7DB1E
:10101000AB46A81B401E0990002004F80B000B985B
:10102000099AC0F80880C0E9002B7AE711264FF032
:10103000000857E72DE9F04F88460446D21D22F0FC
:10104000070191B0D1E90001CDE90A0141F034F97D
:1010500002460B98C00F01D02D2007E020688107C1
:1010600001D52B2002E0202101EAC000032A0990CB
:1010700001D0072A05DB03464146204600F0FAFA74
:101080000BE12078800601D5E06900E00620B8F188
:10109000650F814606D0B8F1660F18D0B8F1670F1A
:1010A00070D131E00020B9F1110F009001DB112364
:1010B00001E009F101030AAA01A90CA8FFF7E2FE69
:1010C000DDE90C70002609F10105834647E00120A7
:1010D0004B4600904FF000470AAA01A90CA8FFF761
:1010E000D1FEDDE90DB00C995D46002610B909F17D
:1010F00001000D18B9EB050003D4C0F1FF3609F16A
:101100000105A5EB09002BE0B9F1010F01DA4FF061
:1011100001090020B9F1110F0090484601DD1123AB
:1011200000E003460AAA01A90CA8FFF7ABFEDDE91F
:101130000C704D4600268346207800070AD4AB4544
:1011400000DA5D4601A8012D04DD411911F8011CEA
:10115000302907D04F4502DA17F1040F04DA0120D5
:1011600082460FE06D1EEEE7002F02DCED1B3E44D1
:1011700003E0781CA84200DD7D1CB81B00F1010AC9
:101180004FF000472078000703D4AA4501DB4FF059
:10119000FF3A0021B7F1004F0DF143088DF84310DD
:1011A00024D002202B23002F01DA7F422D230A2195
:1011B000021EA0F1010000DC5FB197FBF1FC97FB80
:1011C000F1F201FB1C7C17460CF1300C08F801CD44
:1011D000EEE7A8F1010003702188090501D545213A
:1011E00000E06521A0F1010800F8011C09980FA991
:1011F000A1EB0807FF1D00B10120411901EBEA70C6
:10120000A1693844081A401EA0612078C00602D4A3
:101210002046FFF7BBFB099828B1D4E9012190478C
:10122000206A401C20622078C00622D52046FFF7A5
:10123000ADFB1EE0002E04DBB34502DD01A8805D9E
:1012400000E03020D4E901219047206A401C206250
:10125000761CAAF101005FEA000A0AD100F006FA42
:10126000C0680168405CD4E901219047206A401CB5
:101270002062281EA5F10105DCDC07E0D4E901218C
:1012800018F8010B9047206A401C2062381EA7F115
:101290000107F3DC2046FFF78FFB032011B041E686
:1012A0002DE9F04F04460D46D21D22F0070089B00B
:1012B000D0E900974846394640F0FEFF0246F80F55
:1012C00001D02D2307E02068810701D52B2302E000
:1012D000202101EAC0038DF820300BB1012000E08D
:1012E0000020032A824601D0072A04DB2946204633
:1012F00000F0C0F93FE12078800601D40D2500E020
:10130000E569C7F30A560D2D49DA00214FEA175B4C
:1013100008464FF00000002F00F4400007DA00EB11
:1013200080004FF4400100EBD07001EA60008115AD
:10133000012901DD4FF0FF3100224FEA850CBCF19D
:10134000180F06D31346ACF118004FF08052C2407C
:1013500003E04FF4801323FA0CF30CF10C0CBCF1F6
:10136000200F04D3ACF1200C09FA0CF001E007FACD
:101370000CF000294FF0004801DD18B90FE00ED144
:1013800040450CD319EB02095F4121B9404502D118
:101390009F4329EA0209BBEB175F00D0761C208827
:1013A000000502D57B48784402E07A487844193831
:1013B00008AA302302F80A30037C0AF10101002E4A
:1013C0000AF1020A53546A4602DC4FF0300101E090
:1013D0004FF031014FF001088DF8001002D0A6F255
:1013E000FF3603E059EA470100D06B4E002D02DCC6
:1013F0002178090704D54FF002082E218DF801103D
:10140000C44600210BE0C7F303433F01C35C491C02
:101410006D1E02F80830052908F1010801DA002DD7
:10142000F1DC00210CE000EB1973491C1B786D1EE8
:10143000082902F808304FEA091908F1010801DA11
:10144000002DF0DC21688B0602D516E0A8F101081A
:10145000E04505DD02EB080313F8013C302BF5D025
:10146000B8F1000F09DD02EB080313F8013C2E2B45
:1014700003D1090701D4A8F10108002D05DD3E21A3
:1014800002F808106D1E08F10108407C002E02F8D9
:10149000080008F1010804DA2D20764202F808005D
:1014A00002E02B2002F808000A214FF47A708642ED
:1014B00008F101080BDB96FBF0F3303302F808303B
:1014C00096FBF0F308F1010800FB136601E0642EBF
:1014D0000CDB642096FBF0F3303302F8083096FB07
:1014E000F0F308F1010800FB136601E00A2E06DBA9
:1014F00096FBF1F0303002F8080008F1010896FB85
:10150000F1F001FB1060303002F80800A16908F129
:10151000010808EB050202EB0A00081AA061207816
:10152000C00602D42046FFF731FA216A08AE01EB6B
:101530000A00206204E0D4E9012116F8010B90476B
:10154000BAF1010AF7D22078C00602D52046FFF78B
:101550001DFA6E4609E016F8010B3E280FD0D4E9BB
:1015600001219047206A401C2062B8F10108F2D2A4
:101570002046FFF721FA09B00320BDE8F08F206A6A
:101580002844206203E0D4E90121302090476D1EF9
:10159000EBD3F8E71D10040002FCFFFF10B5436910
:1015A00013B1AFF3008001E0FFF7B0FA012010BDE6
:1015B000128800F1240182840022C2840122EDE716
:1015C00011684FF0FF32E9E72DE9F04116460C466D
:1015D000054600F043F8036893F80101012807D09D
:1015E000FF2C12D8185D80B101202C70BDE8F0816D
:1015F000D3F807013246214603F20713C7182846DD
:10160000BC46BDE8F041002360474FF0FF30EDE7F6
:10161000754600F0EBF8AE4605006946534620F0EB
:101620000700854618B020B5FEF738FFBDE820401A
:101630004FF000064FF000074FF000084FF0000B8E
:10164000AC46ACE8C009ACE8C009ACE8C009ACE8FD
:10165000C00921F007018D467047000010B500F069
:1016600005F8001D10BD00BFBD0C04000048704708
:10167000D00000202DE9F0411F46044603260168F2
:10168000072A01F4006004DB08B116A505E016A5E1
:1016900003E008B115A500E015A521F010002060B9
:1016A000A069C01EA0610FB1401EA0612046FFF7D7
:1016B0006DF94FB1D4E9012138469047206A401CAA
:1016C0002062C01C206206E0206AFAE7D4E901210A
:1016D00015F8010B9047761EF8D22046FFF76CF9FB
:1016E000BDE8F0814E414E006E616E00494E4600ED
:1016F000696E66002DE9F047814616468AB0354886
:1017000078440DC88DE80D0032487844801C03AC45
:101710000DC884E80D0041F69B300844372190FB4A
:10172000F1F290FBF1F5A5F1800501FB12041B3CE1
:1017300002D56442012000E00020DFF898A0804636
:101740000027FA44AAF1BE0A0EE0E0070AD03246AA
:10175000684607EB470101230AEB810140F075FC65
:101760008DE8070064107F1C002CEED1194F7F44D8
:10177000AE3F19E0E80715D007EB04100DF1180A89
:1017800090E80E008AE80E00C068F04201D1981976
:1017900008903246012306A903A840F056FC03AB8B
:1017A00083E807006D10641C002DE3D14FF00103A6
:1017B00032466946B8F1000F03A802D040F030FC71
:1017C00001E040F042FCC9E90001C9F808200AB074
:1017D000BDE8F087540D040010B50446AFF3008057
:1017E0002046BDE81040FEF744BE000000487047A8
:1017F000B00000200000000010B542F2083104469D
:10180000C4F20201096811F4403F0FD005F018FF3F
:101810006168B1F5803F05D0B1F5403F24D0B1F506
:10182000003F22D1090CB0FBF1F01EE04FF4002084
:10183000002104F0A5FE6168A1F580228B0343EA34
:1018400092420A2A11D8DFE802F0070707070707C4
:101850003D3F4143450000BF6FF0010202EA5141A4
:10186000B0FBF1F001E000BF80084BF62141C0F26F
:10187000BE01884206D82068816821F440718160E9
:1018800010BD00BF47F64101C0F27D11884207D864
:1018900020680122816862F30921816010BD00BFC8
:1018A00021684FF28102C0F2FA229042886805D87E
:1018B000022262F30920886010BD00BF40F440702E
:1018C000886010BD0009D0E74009CEE78009CCE769
:1018D000C009CAE7000AC8E770B504460068826814
:1018E000836802F0040203F00803D2186CD0C268C7
:1018F000920121D5627D012A1ED1227D012A1BD1B0
:101900000168490613D44DF60441C0F20C010439B4
:1019100050D0026852065CBF02685FEA426206D499
:10192000026852065CBF02685FEA4262EFD540215E
:101930000160012106E000BF022903D1022108262F
:1019400012E000BF826852070AD58268920707D466
:101950004FF6C0738268C7F6FF731A401032826078
:1019600001294FF0040610D0826812070AD5826858
:10197000920707D44FF6C0738268C7F6FF731A4008
:1019800020328260032908BF0C2604F0D5F82168B4
:101990008968314218D0054603E000BF80683042B4
:1019A00012D004F0C9F8401B06282068F6D38168DD
:1019B0003142F3D0606D40F010006065A06D40F0E2
:1019C0000100A065012070BD002070BD0000000076
:1019D0000146806B426D12F0500F426D06D0D20668
:1019E00010D4C06CC26C0846104700BF42F40071AE
:1019F000416501680A681207CA6805D4910709D0D1
:101A000000F0DEBE00F008BF12F4406FF8D1C968E4
:101A10008904F5D4416D21F480714165416DC9049B
:101A2000EED4416D41F00101416500F0C9BE0000F6
:101A3000806B416D41F040014165816D41F00401D1
:101A4000816500F0E9BE0000806B00F0E1BE00009F
:101A5000B0B5016804468A688868C0074FF0000086
:101A600031D012F0020218BFB0BD886800F00D003E
:101A700001281FD14FF6C0728868C7F6FF72104068
:101A8000023088600320086004F056F821688968F5
:101A9000C90701D10020B0BD054602E08068C0073B
:101AA000F8D004F049F8401B03282068F6D3816879
:101AB000C907F3D0606D40F010006065A06D40F084
:101AC0000100A0650120B0BD70B5044600688168C2
:101AD000C9072AD14FF6C0768168C7F6FF7606F1AE
:101AE0007F0211420AD0606D40F010006065A06D69
:101AF00040F00100A065012070BD00BF8168314049
:101B000041F00101816004F017F842F2001305462C
:101B1000C4F20203D3F808222168994202D112F0DC
:101B20001F0002D10868C00705D0002070BD00BFAB
:101B30000868C007F9D18868C00704D188683040B8
:101B400040F00100886003F0F7FF401B2168032884
:101B5000EED30868C007EBD1C5E700000000000025
:101B600044F2F301C1F66201884240F2DE31C2F272
:101B700000012BD044F2F302C1F6600290422CD156
:101B800040F2004C4CF6CD40C2F2000CBCF80020F4
:101B9000BCF802309CF804C081F800C044F6D35C65
:101BA00012BAC1F2620C120C50431ABA4DF6F0038D
:101BB000CFF6FF73C00C03EB1242888093B2CA8049
:101BC0004343A3FB0C039809488006E040F2004021
:101BD000C2F200000078283888720878642818BF9C
:101BE0007047632008707047FEE7000000000000A7
:101BF00040F6D440C2F2000001F01EBE000000001A
:101C000040F65C40C2F2000001F016BE0000000089
:101C100040F6F430C2F2000001F00EB900000000FE
:101C200040F20F42D0F800C0C4F20202944511DC29
:101C30006F22C4F20202944522DC3F22C4F2020267
:101C4000944539DC1022C4F2020294455AD028226D
:101C500054E000BF40F26F42C4F2020294451BDC24
:101C600040F23F42C4F2020294452DDC40F21042A1
:101C7000C4F20202944545D040F228423EE000BF43
:101C80009F22C4F20202944528DC7022C4F20202B0
:101C9000944537D0882231E040F29F42C4F20202DC
:101CA000944523DC40F27042C4F20202944529D0EC
:101CB00040F2884222E000BF4022C4F20202944572
:101CC00020D058221AE000BF40F24042C4F2020283
:101CD000944517D040F2584210E000BFA022C4F251
:101CE000020294450ED0B82208E000BF40F2B8428C
:101CF000C4F20202944505D040F2A042C4F20202AE
:101D0000944517D10CF0F8024AF6AB23103ACAF604
:101D1000AA23A2FB03310AA35F2AC1F302115B5C71
:101D200040F2FF312CEA0101C36588BF04318165AF
:101D3000084670472CF0FF0181650846704700BFD8
:101D4000000610160006101670B542F60744D0F8CB
:101D500000C0C4F60204D0F858E0A4451EDC40F2EE
:101D60000F45C4F20205AC453ADC6F25C4F202050A
:101D7000AC4551DC3F25C4F20205AC4500F384803C
:101D80001025C4F20205AC4500F0CD802825C4F230
:101D90000205AC4500F0C780E8E100BF45F2074509
:101DA000C5F60205AC4540F3E98045F25745C5F656
:101DB0000205AC4540DC45F22F45C5F60205AC45B1
:101DC0006EDC45F20845C5F60205AC4500F0AB8077
:101DD00045F21C45C5F60205AC4500F0A480C5E1FE
:101DE00040F26F45C4F20205AC4539DC40F23F4594
:101DF000C4F20205AC4561DC40F21045C4F20205B4
:101E0000AC4500F0908040F22845C4F20205AC4594
:101E100000F08980AAE100BF9F25C4F20205AC450D
:101E20005ADC7025C4F20205AC457CD08825C4F28A
:101E30000205AC4577D099E145F27F45C5F602052C
:101E4000AC4555DC45F25845C5F60205AC456AD0AF
:101E500045F26C45C5F60205AC4564D086E100BF8D
:101E600040F29F45C4F20205AC454FDC40F270459C
:101E7000C4F20205AC4556D040F28845C4F20205D2
:101E8000AC4550D072E100BF4025C4F20205AC451C
:101E900049D05825C4F20205AC4544D066E100BFE4
:101EA00045F23045C5F60205AC453CD045F2444507
:101EB000C5F60205AC4536D058E100BF40F24045BA
:101EC000C4F20205AC452ED040F25845C4F20205DA
:101ED000AC4528D04AE100BFA025C4F20205AC45BC
:101EE00021D0B825C4F20205AC451CD03EE100BFAC
:101EF00045F29445C5F60205AC4514D045F280453F
:101F0000C5F60205AC450ED030E100BF40F2A04559
:101F1000C4F20205AC4506D040F2B845C4F2020551
:101F2000AC4540F02381456EC66E002E866E6E6015
:101F30001CBFD0E91C566E60A44519DC40F20F446A
:101F4000C4F20204A4453FDC6F24C4F20204A44599
:101F500000F394803F24C4F20204A44500F3BC8043
:101F60001024C4F20204A44500F0E8802824E1E033
:101F700045F20744C5F60204A4453DDC42F6574449
:101F8000C4F60204A4450FDC42F62F44C4F6020452
:101F9000A44549DC42F60844C4F60204A4455AD0DC
:101FA00042F61C4452E000BF42F67F44C4F60204ED
:101FB000A44543DC42F65844C4F60204A4454AD082
:101FC00042F66C4442E000BF40F26F44C4F20204A7
:101FD000A4455FDC40F23F44C4F20204A44500F390
:101FE000838040F21044C4F20204A44500F0A680AD
:101FF00040F228449EE000BF45F25744C5F6020473
:10200000A44557DC45F22F44C5F60204A44575DC0F
:1020100045F20844C5F60204A4451CD045F21C4410
:10202000C5F6020414E000BF42F63044C4F60204D0
:10203000A44510D042F6444408E000BF42F6804474
:10204000C4F60204A44506D042F69444C4F6020441
:10205000A44540F08B80C46D012504F01F04806806
:1020600005FA04F4CEF804404028CCF8043079D1C5
:10207000CCF80820CCF80C1070BD00BF9F24C4F22F
:102080000204A44546DC7024C4F20204A44555D0E1
:1020900088244FE040F29F44C4F20204A44541DC8E
:1020A00040F27044C4F20204A44547D040F2884490
:1020B00040E000BF45F27F44C5F60204A44557DC6A
:1020C00045F25844C5F60204A445C4D045F26C4418
:1020D000C5F60204BCE700BF4024C4F20204A445D4
:1020E0002CD0582426E000BF40F24044C4F2020441
:1020F000A44523D040F258441CE000BF45F23044D0
:10210000C5F60204A445A6D045F24444C5F602042F
:102110009EE700BFA024C4F20204A4450ED0B82458
:1021200008E000BF40F2A044C4F20204A44505D078
:1021300040F2B844C4F20204A44517D18468C06DCB
:1021400000F01F003F2505FA00F0CEF80800DCF88B
:102150000000402C20F48020CCF80000CCF80430A3
:102160003FF486AFCCF80810CCF80C2070BD00BF4F
:1021700045F28044C5F60204A4453FF46CAF45F235
:102180009444C5F6020463E770B541F200044FF4CD
:102190008071C5F60204204603F0B6FC40F2DC353F
:1021A0000028C2F2000518BF0120297840EA010684
:1021B000F0070DD04FF48071204603F0A5FC0128F4
:1021C0001ED12878002808BF70BD202101E000BF83
:1021D000102140F248504FF6FF72C2F20000C1F2E7
:1021E000342201704FF4803100F052F80122A4F53E
:1021F00000600221B2432A70BDE8704003F08CBC3D
:1022000070BD0000000000007047000000000000EA
:10221000EFF3108072B600BFFEE700000000000080
:1022200010B588B04FF0804000900020019002214E
:10223000029101210590CDE9031040F64C5069460A
:10224000C2F2000002F008FE08B1FFF7E1FF40F61D
:102250004C54C2F20004204603F03EFB0121002250
:10226000204602F035FD08B010BD0000000000005F
:1022700010B540F64C54C2F20004204602F03CFF78
:102280002046BDE8104008F023B800000000000020
:1022900080B540F250538446C2F2000340F64C50E1
:1022A000C2F200001A604FF080425A600022C3E977
:1022B0000221C3E90422C3E906221A6219466246D2
:1022C00002F04EFD002818BF012080BD0000000074
:1022D00070B582B000230193044690F850000128A5
:1022E00002D1022002B070BD012084F850002046C7
:1022F00015460E46FFF7ACFB616D18B141F01001B9
:102300004CE000BF41F202124FF6C0739143C3F696
:10231000FE7302316165216806F4803605F0804560
:102320008A682E4413404FF2FF72C2F2C352334404
:1023300003F100438B608B68B3F1FF3F2ADC019B04
:1023400001330193019B93421DD88B68B3F1FF3F8A
:1023500020DC019B01330193019B934213D88B68CE
:10236000B3F1FF3F16DC019B01330193019B9342C4
:1023700009D88B68B3F1FF3F0CDC019B013301935B
:10238000019B9342D7D9606D40F0100020F002010C
:10239000012003E0616D012262F30101616500210A
:1023A00084F8501002B070BD90F85020012A01D17D
:1023B00002207047B0B582B042F208320023019388
:1023C000C4F202020093A2F542740368A34227D12B
:1023D0004FF6006E4FF60055CFF6FF7ECFF6FF7535
:1023E00052F80E40535923435B0719D4D1F800C06B
:1023F0001368BCF1000F23F440441FD04B68234303
:102400001360535952F80E502B43DB0722D1136847
:1024100040F61F75AB438968194341EA0C0118E087
:10242000416D41F0200141650121002280F85020DA
:1024300002B0BDE8B0400846704700BF1460515973
:1024400052F80E301943C90704D1116840F61F73C2
:10245000994311600021E8E7F0B581B000220092B5
:1024600090F85020012A03D10221084601B0F0BDA6
:102470000768012380F85030BC68640700F13C8194
:10248000D1E90042260394FAA4F5B5FA85F508BF10
:10249000A50EC4F3846405F01F06C2F3012502F003
:1024A0001F02B340FE693343FB6107EB85031F2620
:1024B00096401D6B04FA02F225EA060632431A63BF
:1024C000BA68BB6802F0040203F00803D21840F0B7
:1024D00080800A6807258E68C2F34063C2F3045205
:1024E00007EB830395405C6906FA02F224EA0505CE
:1024F0002A435A61FC68D1E9043C042BD7F80CE06C
:102500001ED13A6E0B6802F0F8429B069A4249D1FE
:102510003A6E22F000423A667A6E02F0F8429A422F
:1025200045D0BA6E02F0F8429A4249D1BA6E22F012
:102530000042BA66FA6E02F0F8429A4249D144E08B
:10254000E2064FF0080258BF0E2207F160060D6840
:1025500002EA5E0205F0F8450CFA02F256F8234052
:1025600004F000442A43224346F823200A694B7EA4
:1025700056F82250012B25F0004508BF05F1004513
:1025800046F822500A7E0B693E69013A03F01F03A8
:10259000B2FA82F226F4F0465209D2029A4032434D
:1025A0003A6116E07A6E02F0F8429A42B9D17A6E38
:1025B00022F000427A66BA6E02F0F8429A42B5D032
:1025C000FA6E02F0F8429A4203D1FA6E22F000420B
:1025D000FA66BA68D20756D14FF6FF7CCE68C0F2D1
:1025E0000F0C0B6806F0180203EA0C042CFA02F236
:1025F00040F2000CD7F8C050C4F2FF7CA5431A404B
:10260000664542EA0502C7F8C02039D194B193FA71
:10261000A3F2B2FA82F2013202F01E03092B02F099
:102620001F0310D8012203EB43069A4042EA0653E7
:1026300015E000BF012202EB936202F01E030A2B99
:1026400002F01F03EED3012203EB43069A4000235E
:10265000CFF6206303EB06531A4342F00073C3F333
:1026600040620725C3F304538E6807EB82029D4046
:10267000546906FA03F324EA05052B4353610B68FA
:10268000B3F1FF3F02DD00213BE000BF42F2083C16
:102690004FF600514FF60062C4F2020CCFF6FF7104
:1026A000CFF6FF72DCF800405CF801105CF8022005
:1026B0001143C90720D1002104F0E07ECCF684311B
:1026C0008B4208BF14F4000122D044F20001CBF683
:1026D000C0218B425AD10021B1EB1E6F56D1ACF50F
:1026E00002718F42CFD1DCF8001021F0E07141EA95
:1026F0000E0141F080715FE0416D41F020014165C4
:102700000121002280F85020084601B0F0BD00BF32
:10271000ACF502718F42B6D1DCF8001042F663527C
:1027200021F0E071C0F23E5241EA0E0141F4000195
:10273000CCF8001040F20C01C2F2000109688909CE
:10274000A1FB02129109022202EB410100910099C2
:10275000002998D00099013900910099002992D060
:10276000009901390091009900298CD00099013914
:102770000091009900293FF486AF0099013900913A
:10278000009900294FF00001E4D1BAE7ACF50271DD
:102790008F424FF00001B4D10022CCF6B8729342C0
:1027A00008BF14F48002ACD1DCF8001021F0E07115
:1027B00041EA0E0141F48001CCF800100021A0E7AD
:1027C00080B540F69030C2F2000000F025FA40F2E9
:1027D00024704BF2B032C2F20A400188B1F57A6F30
:1027E00098BF4FF47A61914228BF11464DF247528B
:1027F000511A43F6FD0289B25143890E018040F619
:102800004C000121C2F20000017080BD00000000F8
:10281000704700000000000001A034F0C5BE00BFFA
:10282000414443206572726F720D0A00000000007F
:10283000B0B582B0044600284FF00000019009D0E6
:10284000606D58B120688168890012D48168C90020
:1028500019D54AE00125284602B0B0BD204600F057
:10286000EFF80020A06584F8500020688168890096
:10287000ECD54FF6C0728168C5F6FF7211408160D9
:102880008168C90031D44FF6C0718268C5F6FF7106
:1028900001F18051114042F6635201F18051816093
:1028A00040F20C01C0F23E52C2F2000109688909EF
:1028B000A1FB0212012101EB921101E00199013902
:1028C0000191019989B1019901390191019961B190
:1028D000019901390191019900291FBF019901391D
:1028E0000191019918BF0029E8D18168C90009D474
:1028F000616D012541F010016165A16D41F001019B
:10290000A16500E000258168626D02F0100201F00F
:1029100004018918616D6BD121F481710231616507
:102920008168C90716D142F208314FF600524FF6BE
:102930000063C4F20201CFF6FF72CFF6FF738A582C
:10294000CB581A43D20705D162680B6823F47C1375
:102950001A430A60617D226B237F42EA4131A268FB
:102960001143012B41EA034106D1226A0023CFF62D
:10297000FE7303EB42421143626A22B102F47872A1
:10298000A36A1A4311434CF20303C268CFF6F073F3
:102990001A401143C1608168826801F0040102F0AD
:1029A0000802891838D1217D44F2030CE26AC36819
:1029B00042EA813123EA0C021143C16094F83810D5
:1029C000012901691CD14FF61E02CFF6004201EA2F
:1029D000020C0121D4E90F23CFF6FF7101EB024174
:1029E00043EA0C02636C1143A26C1943114309E0E2
:1029F00041F0100001256065284602B0B0BD00BF5F
:102A000021F0010101610169626B21F07041114304
:102A100001612046FEF7F0FE2068E1680129026BA3
:102A200022F00F0102D1A269013A11430163012191
:102A3000606D61F301006065284602B0B0BD000022
:102A400070B5B8B0044602A8283098210025379503
:102A50003695FDF730FF42F200012068C4F2020112
:102A6000884201D038B070BD4FF400200290192088
:102A700004904FF4A07005900A2006900220039560
:102A8000CDE9070040F2AF700B9002A8CDE90955DF
:102A900003F03EFF08B1FFF7BBFB44F238500026BD
:102AA000C5F60200016841F020010160016801F0F3
:102AB000200101910199816841F0040181608068E1
:102AC00033A900F0040001900198102033900320F6
:102AD000349040F60000C5F60200359602F040FF43
:102AE00040F65C452820C2F20005C4F202002860CE
:102AF0000920C5E901064FF4806028614FF40060A9
:102B000068614FF40050EE60C5E906064FF40030EE
:102B1000C5E90806284601F03FFB08B1FFF778FB3E
:102B2000E564AC6338B070BD2DE9F04142F20017A6
:102B30000446C4F20207D7F8080223689B685B07C3
:102B400004D40E4694F85010012903D10220BDE8A8
:102B5000F08100BF00F01F050120092D84F850000E
:102B600009D8A84040F22121084204D020469046CE
:102B7000FEF7AAFF30B1002084F850000120BDE824
:102B8000F08100BF2168606D40F6017220EA02000A
:102B900000F5807060650DB1B94203D0606D20F41E
:102BA00080106065606D41F6D113C0044FF00000E5
:102BB00044BFA06D20F0060041F64927C9F200038A
:102BC000A065C9F20007E06C0022C0E90F3741F6AA
:102BD0003123E76AC9F20003C3641C230B6084F845
:102BE000502043464A6842F010024A60CA6822F008
:102BF00003023A43CA604031324601F081FE216847
:102C00004FF6C073C7F6FF738A681A4004328A60B1
:102C1000BDE8F0810000000070B5044690F8500057
:102C2000012801D1022070BD03212046012584F82E
:102C30005050FEF751FE28B1002084F8500028467D
:102C400070BD00BF2168E06CCA6822F00302CA6050
:102C500090F83520022A3AD100F0FAF9B0B30546CF
:102C60002068616D41F040016165416821F010010B
:102C7000416081688268D207DED011F00201DBD1A9
:102C8000816801F00D0101291ED14FF6C0728168E3
:102C9000C7F6FF721140023181600321016002F02A
:102CA0004BFF21688968C907C6D0064603E000BF0C
:102CB0008068C007C0D002F03FFF801B0328206857
:102CC000F6D38168C907F3D0606D39E021684868A0
:102CD00020F01000486088688A68D20717D010F08A
:102CE000020014D1886800F00D00012826D14FF6AB
:102CF000C0728868C7F6FF721040023088600320F7
:102D0000086002F019FF21688968C90708D12046C8
:102D100041F20112002550F8541F914316E000BF04
:102D2000054602E08068C007F1D002F005FF401BB5
:102D300003282068F6D38168C907F3D0606D0125A8
:102D400040F010006065204650F8581F41F0010126
:102D50000160002084F85000284670BD000000008B
:102D6000704700000000000090F86020012A4FF03A
:102D700002025CD02DE9F041C1EBC10380F8612073
:102D800000EB830303F1280CD3E90B42D3E90D8553
:102D9000DE6B1204A4F1090E4FEA0867BEF1020FC0
:102DA00042EA055238BF08F07F4742EA46520029FE
:102DB00042EA070242EA04011CD00B2C4FF6F074E1
:102DC000C0F2CC0404D11A6CA4F5402441EA82413B
:102DD0000368BEF1010FDA6902EA040241EA020166
:102DE000D961DCF80010196119D828F07F41196207
:102DF00015E000BF02684FF6F074C0F2CC04BEF1DB
:102E0000010F536A03EA040341EA03015162DCF84B
:102E10000010916103D8416B21F07F419162002243
:102E2000012180F8611080F86020BDE8F041104673
:102E3000704700000000000070B504460068466856
:102E40000568F10718BF15F480717DD1B0061AD559
:102E500015F4005017D02068616A026822F400520D
:102E600002604FF020028260606E40F002006066F7
:102E70004FF0040084F861004FF0000084F8600017
:102E800009B12046884730071AD515F4006017D0DD
:102E90002068616A026822F4006202604FF0080252
:102EA0008260606E40F0040060664FF0040084F8B9
:102EB00061004FF0000084F8600009B120468847A7
:102EC00070070CD515F4806009D02068016821F4E2
:102ED0008061016004218160204600F091F8B00714
:102EE00018D515F4007015D02068216A026822F404
:102EF000007202604FF002028260606E60664FF006
:102F0000010084F861004FF0000084F8600009B10E
:102F100020468847F0062FD515F4805008BF70BDB5
:102F20002068016821F48051016010218160606E89
:102F30006066012084F86100002084F8600020466B
:102F4000BDE87040FFF70CBF016821F4807101609B
:102F5000616E41F00101616601218160042084F805
:102F60006100616A0020002984F860003FF46EAFC0
:102F7000204688476AE700BF70BD000000000000DF
:102F8000E0B310B5044690F8610028B9002084F839
:102F90006000204600F038F8022084F8610094E8D0
:102FA00003404FF6BF72D4F80CC00368CFF6F87236
:102FB0001A40E369114340F2071219430160416B63
:102FC0009143A26941EA0E0111434163016C4FF63E
:102FD000FF72914341EA0C010164416B226921F4C3
:102FE0004011636941EA025141EA435141630020C3
:102FF0006066012184F8611010BD00BF0120704798
:10300000704700000000000041F200010068C5F2B6
:103010000021884218BF704780B582B044F2345016
:103020000022C5F60200016841F01001016000684D
:10303000002100F01000019001985A2003F06CF874
:103040005A2002B0BDE8804003F052B800000000F2
:103050002DE9F041044602F06FFD1CB3054694F8DB
:103060003500022822D140F20F462768C4F202063A
:1030700040F26F48B7426FF00E00C4F202081DDC48
:103080006F21C4F202018F422ADC3F21C4F2020107
:103090008F4241DC1021C4F202018F4263D028210B
:1030A0005CE000BF0120BDE8F08100BF80206065CA
:1030B0000120002184F83410BDE8F08147451BDC75
:1030C00040F23F41C4F202018F422DDC40F2104138
:1030D000C4F202018F4246D040F228413EE000BFD8
:1030E0009F21C4F202018F4228DC7021C4F2020148
:1030F0008F4238D0882131E040F29F41C4F2020172
:103100008F4223DC40F27041C4F202018F422AD088
:1031100040F2884122E000BF4021C4F202018F4208
:1031200021D058211AE000BF40F24041C4F2020110
:103130008F4218D040F2584110E000BFA021C4F2E5
:1031400002018F420FD0B82108E000BF40F2B84121
:10315000C4F202018F4206D040F2A041C4F2020143
:103160008F42394607D13946386820F01E0041F8B1
:10317000140B6FF080000A68474500EA02000860FF
:103180001ADC9F20C4F20200874233DC5720C4F2CD
:10319000020087425ADC1020C4F20200874200F08D
:1031A00097802820C4F20200874200F091804020DE
:1031B000C4F202008AE000BF45F22F40C5F60200CB
:1031C00087422DDC40F2B740C4F2020087424BDC5C
:1031D00040F27040C4F20200874279D040F2884049
:1031E000C4F20200874273D040F2A040C4F2020051
:1031F0006CE000BF40F22740C4F20200874243DC8B
:10320000A020C4F20200874262D0B820C4F20200BB
:1032100087425DD040F21040C4F2020056E000BF89
:1032200045F26B40C5F6020087423FDC45F2304074
:10323000C5F6020087424BD045F24440C5F6020075
:10324000874245D045F258403EE000BF5820C4F2C6
:10325000020087423CD07020C4F20200874237D07F
:103260008820C4F2020031E040F2B840C4F202000B
:1032700087422DD045F20840C5F60200874227D08C
:1032800045F21C4020E000BF40F22840C4F202009A
:1032900087421DD040F24040C4F20200874217D05E
:1032A00040F25840C4F2020010E000BF45F26C400A
:1032B000C5F6020087420BD045F29440C5F60200E5
:1032C000874205D045F28040C5F60200874204D10E
:1032D000206E016821F480710160386820F00100DF
:1032E000386000BF3868C00710D002F025FC401BD2
:1032F0000628F7D320206065032084F835000120DC
:10330000002184F83410BDE8F08100BF2068B0428D
:1033100010DC6F21C4F2020188421DDC3F21C4F29F
:103320000201884234DC1021C4F20201884255D0E7
:1033300028214FE040451BDC40F23F41C4F202012E
:1033400088422DDC40F21041C4F20201884245D08F
:1033500040F228413EE000BF9F21C4F202018842B2
:1033600028DC7021C4F20201884237D0882131E084
:1033700040F29F41C4F20201884223DC40F27041D6
:10338000C4F20201884229D040F2884122E000BF05
:103390004021C4F20201884220D058211AE000BF27
:1033A00040F24041C4F20201884217D040F2584135
:1033B00010E000BFA021C4F2020188420ED0B82163
:1033C00008E000BF40F2B841C4F20201884205D0D3
:1033D00040F2A041C4F2020188425BD1D4E9161246
:1033E00002F01F023F2303FA02F28A6040455BDCD1
:1033F0009F21C4F20201884214DC5721C4F2020169
:10340000884227DC1021C4F20201884200F0A28029
:103410002821C4F20201884200F09C804021C4F2BD
:10342000020195E040F22741C4F2020188421FDC0C
:10343000A021C4F20201884200F08C80B821C4F2BD
:103440000201884200F0868040F21041C4F202017D
:103450007EE000BF5821C4F2020188427AD0702178
:10346000C4F20201884275D08821C4F202016FE0E3
:1034700040F22841C4F2020188426BD040F2404140
:10348000C4F20201884265D040F25841C4F2020100
:103490005EE000BFD4E9161202F01F02012303FA16
:1034A00002F24A604045A3DD45F22F41C5F6020114
:1034B000884217DC40F2B741C4F20201884227DC9F
:1034C00040F27041C4F20201884243D040F2884188
:1034D000C4F2020188423DD040F2A041C4F2020190
:1034E00036E000BF45F26B41C5F6020188421FDCA1
:1034F00045F23041C5F6020188422BD045F24441E5
:10350000C5F60201884225D045F258411EE000BFB1
:1035100040F2B841C4F2020188421BD045F2084192
:10352000C5F60201884215D045F21C410EE000BFED
:1035300045F26C41C5F6020188420BD045F2944138
:10354000C5F60201884205D045F28041C5F6020168
:1035500088420BD1616EA26EE06E4A6030B10168A4
:1035600021F480710160D4E91C014160012084F8DC
:1035700035000020002184F83410BDE8F0810000FF
:10358000F0B190F83510022918D180B540F20F4201
:103590000168C4F20202914214DC6F23C4F20203F8
:1035A000994225DC3F23C4F2020399423CDC1023FC
:1035B000C4F2020399425DD0282357E0802141657F
:1035C0000120704740F26F43C4F2020399421BDCB2
:1035D00040F23F43C4F2020399422DDC40F2104313
:1035E000C4F20203994245D040F228433EE000BFB6
:1035F0009F23C4F20203994228DC7023C4F2020321
:10360000994237D0882331E040F29F43C4F202034D
:10361000994223DC40F27043C4F20203994229D05C
:1036200040F2884322E000BF4023C4F202039942E3
:1036300020D058231AE000BF40F24043C4F20203F6
:10364000994217D040F2584310E000BFA023C4F2C3
:10365000020399420ED0B82308E000BF40F2B843FD
:10366000C4F20203994205D040F2A043C4F202031F
:10367000994277D191424FF0040280F8352011DC55
:103680006F20C4F20200814222DC3F20C4F202001B
:10369000814239DC1020C4F20200814259D0282036
:1036A00054E000BF40F26F40C4F2020081421BDCD4
:1036B00040F23F40C4F2020081422DDC40F2104053
:1036C000C4F20200814244D040F228403EE000BFF4
:1036D0009F20C4F20200814228DC7020C4F2020064
:1036E000814236D0882031E040F29F40C4F202008F
:1036F000814223DC40F27040C4F20200814228D0B3
:1037000040F2884022E000BF4020C4F20200814223
:103710001FD058201AE000BF40F24040C4F202001F
:10372000814216D040F2584010E000BFA020C4F201
:10373000020081420DD0B82008E000BF40F2B8403E
:10374000C4F20200814204D040F2A040C4F2020060
:103750008142086820F0010008600021BDE8804037
:10376000084670470A6822F00E020A6045F2574286
:10377000C5F6020291420A6822F001020A600FDCDB
:1037800045F22F42C5F60202914219DC45F2084289
:10379000C5F60202914229D045F21C4222E000BF48
:1037A00045F27F42C5F60202914213DC45F25842CF
:1037B000C5F60202914219D045F26C4212E000BFF8
:1037C00045F23042C5F6020291420FD045F2444222
:1037D00008E000BF45F29442C5F60202914205D0CE
:1037E00045F28042C5F6020291421AD1D0E9181C76
:1037F000D0E916E30A6822F480720A6003F01F0120
:10380000012202FA01F1CEF80410816ECCF8041006
:10381000C16E31B10A6822F480720A60D0E91C12CC
:103820004A60012180F83510026D0021002A80F8DD
:10383000341093D0904790E72DE9F04381B00021F8
:10384000009140F20C010446C2F2000148F2B512A8
:10385000C1F64E32A56D096842F607430068C4F60A
:103860000203A1FB021898422E68296818DC40F276
:103870000F49C4F20209484536DC6F21C4F2020147
:10388000884265DC3F21C4F20201884200F3AA802D
:103890001021C4F20201884200F0F9802821F1E0F1
:1038A00045F20742C5F60202904235DC42F6574225
:1038B000C4F60202904259DC42F62F42C4F60202DC
:1038C000904200F3978042F60842C4F6020290420A
:1038D00000F0418142F61C42C4F60202904200F020
:1038E0003A8100F04BBC00BF40F26F41C4F20201CC
:1038F000884251DC40F23F41C4F20201884200F3A9
:10390000898040F21041C4F20201884200F0BF8079
:1039100040F22841B6E000BF45F25742C5F6020228
:10392000904249DC45F22F42C5F6020290427BDC10
:1039300045F20842C5F60202904200F00C8145F2C1
:103940001C42C5F60202904200F0058100F016BC50
:103950009F21C4F20201884276DC7021C4F2020188
:10396000884200F0948088218CE000BF42F67F42BC
:10397000C4F6020290426FDC42F65842C4F60202DC
:10398000904200F0E88042F66C42C4F60202904297
:1039900000F0E18000F0F2BB40F29F41C4F202016E
:1039A000884267DC40F27041C4F2020188426ED066
:1039B00040F2884166E000BF45F27F42C5F6020250
:1039C000904200F3BB8045F25842C5F60202904295
:1039D00000F0C18045F26C42C5F60202904200F050
:1039E000BA80CBE34021C4F2020188424FD0582173
:1039F00048E000BF42F63042C4F60202904200F0B6
:103A0000AA8042F64442C4F60202904200F0A3802B
:103A1000B4E300BF40F24041C4F20201884236D014
:103A200040F258412EE000BF45F23042C5F6020296
:103A3000904200F0908045F24442C5F60202904266
:103A400000F089809AE300BFA021C4F202018842FD
:103A50001DD0B82116E000BF42F68042C4F6020233
:103A6000904278D042F69442C4F60202904272D05C
:103A700084E300BF40F2A041C4F20201884206D0B4
:103A800040F2B841C4F20201884240F07783E16D10
:103A9000082201F01F018A40324200F0F8804845B8
:103AA0004FF0040312DC6F27C4F20207B84225DC92
:103AB0003F27C4F20207B84200F3B6801027C4F2D1
:103AC0000207B84200F0D7802827CFE040F26F47C6
:103AD000C4F20207B8421FDC40F23F47C4F20207BB
:103AE000B84200F3A98040F21047C4F20207B8427E
:103AF00000F0C18040F22847B8E000BF9F27C4F221
:103B00000207B84200F3A2807027C4F20207B8424D
:103B100000F0B1808827A9E040F29F47C4F2020775
:103B2000B84200F39B8040F27047C4F20207B842EB
:103B300000F0A18040F2884798E000BF45F2804243
:103B4000C5F60202904206D045F29442C5F6020242
:103B5000904240F013830268E36D03F01F030427D3
:103B60009F400F4218BF12F0040623D102279F4046
:103B70000F4218BF12F0020626D1D940090740F1C2
:103B8000FD8212F0080100F0F982016821F00E01B7
:103B90000160012000FA03F16960606584F8350076
:103BA000E16C00294FF0000084F8340040F0E1821D
:103BB000E4E200BF11046F601AD4910620D40168BA
:103BC00021F0040101601BE011046F601ED4910616
:103BD00024D4016821F00A010160012084F8350035
:103BE000002084F83400E16B002940F0C282C5E275
:103BF000D00305D4A16C002940F0BB82BEE200BF17
:103C0000216C002940F0B582B8E200BFD00305D492
:103C1000616C002940F0AD82B0E200BFE16B002989
:103C200040F0A782AAE200BF4027C4F20207B842D0
:103C300021D058271AE000BF40F24047C4F20207E3
:103C4000B84218D040F2584710E000BFA027C4F295
:103C50000207B8420FD0B82708E000BF40F2A047E3
:103C6000C4F20207B84206D040F2B847C4F20207D5
:103C7000B84218BF082307681F4208D0036823F022
:103C800004030360AA60626D42F0010262650122D2
:103C90008A40324273D0484510DC6F23C4F20203DD
:103CA000984221DC3F23C4F20203984238DC1023FF
:103CB000C4F2020398425AD0282353E040F26F43E3
:103CC000C4F2020398421BDC40F23F43C4F20203F9
:103CD00098422DDC40F21043C4F20203984246D0D1
:103CE00040F228433EE000BF9F23C4F20203984203
:103CF00028DC7023C4F20203984238D0882331E0D4
:103D000040F29F43C4F20203984223DC40F2704326
:103D1000C4F2020398422AD040F2884322E000BF56
:103D20004023C4F20203984221D058231AE000BF76
:103D300040F24043C4F20203984218D040F2584384
:103D400010E000BFA023C4F2020398420FD0B823B2
:103D500008E000BF40F2A043C4F20203984206D03C
:103D600040F2B843C4F20203984240F00B82436928
:103D70001B0604D5AA60626D42F00202626504224D
:103D80008A40324273D0484510DC6F23C4F20203EC
:103D9000984221DC3F23C4F20203984238DC10230E
:103DA000C4F2020398425AD0282353E040F26F43F2
:103DB000C4F2020398421BDC40F23F43C4F2020308
:103DC00098422DDC40F21043C4F20203984246D0E0
:103DD00040F228433EE000BF9F23C4F20203984212
:103DE00028DC7023C4F20203984238D0882331E0E3
:103DF00040F29F43C4F20203984223DC40F2704336
:103E0000C4F2020398422AD040F2884322E000BF65
:103E10004023C4F20203984221D058231AE000BF85
:103E200040F24043C4F20203984218D040F2584393
:103E300010E000BFA023C4F2020398420FD0B823C1
:103E400008E000BF40F2A043C4F20203984206D04B
:103E500040F2B843C4F20203984240F09B810368E9
:103E60009B0704D5AA60626D42F0040262651022CD
:103E700002FA01F1314200F0858048454FF0080216
:103E800010DC6F23C4F20203984221DC3F23C4F20A
:103E90000203984238DC1023C4F2020398425AD03D
:103EA000282353E040F26F43C4F2020398421BDC24
:103EB00040F23F43C4F2020398422DDC40F210432B
:103EC000C4F20203984246D040F228433EE000BFCD
:103ED0009F23C4F20203984228DC7023C4F2020339
:103EE000984238D0882331E040F29F43C4F2020365
:103EF000984223DC40F27043C4F2020398422AD075
:103F000040F2884322E000BF4023C4F202039842FB
:103F100021D058231AE000BF40F24043C4F202030C
:103F2000984218D040F2584310E000BFA023C4F2DA
:103F3000020398420FD0B82308E000BF40F2A0432C
:103F4000C4F20203984206D040F2B843C4F202031E
:103F5000984218BF04220368134213D0A960016875
:103F60004903016808D4C90508D4016821F0080193
:103F70000160216C21B905E0080353D4216C09B11B
:103F800020468847E06D00F01F01202000FA01F272
:103F9000324200F0B18020681023484510DC6F27C2
:103FA000C4F20207B84221DC3F27C4F20207B8423C
:103FB0003CDC1027C4F20207B8425ED0282757E045
:103FC00040F26F47C4F20207B8421BDC40F23F47A1
:103FD000C4F20207B84231DC40F21047C4F20207D3
:103FE000B8424AD040F2284742E000BF9F27C4F2BF
:103FF0000207B8422CDC7027C4F20207B8423CD05A
:10400000882735E040F29F47C4F20207B84227DC18
:1040100040F27047C4F20207B8422ED040F28847FF
:1040200026E000BFA16C0029AAD1ABE74027C4F26B
:104030000207B84221D058271AE000BF40F240479B
:10404000C4F20207B84218D040F2584710E000BF4F
:10405000A027C4F20207B8420FD0B82708E000BF7B
:1040600040F2A047C4F20207B84206D040F2B84777
:10407000C4F20207B84218BF022307681F423BD0B0
:10408000AA6094F83520042A02681DD122F0160295
:104090000260426922F080024261226C0AB9A26C7D
:1040A0001AB1026822F0080202603F208840A8602E
:1040B000012084F83500216D00294FF0000084F8BC
:1040C000340056D15AE000BF510301680CD4C90531
:1040D0000ED4016821F010010160012084F8350040
:1040E000002084F8340003E0080301D4616C00E090
:1040F000E16B09B120468847606D00283ED0606DB5
:10410000C00734D0042084F8350020684FEA982195
:10411000026822F001020260009A013200928A4293
:104120001AD80268D20717D0009A013200928A4248
:1041300012D80268D2070FD0009A013200928A4248
:104140000AD80268D20707D0009A013200928A4248
:1041500002D80268D207DFD10068C0074FF0030021
:1041600008BF012084F83500002084F83400E16C99
:1041700021B1204601B0BDE8F043084701B0BDE8D9
:10418000F08300BF026804228A4032427FF4FBAD14
:104190006DE600BF02686AE62DE9F04381B004468F
:1041A00001F0CAFC002C00F0358142F607410546BB
:1041B0002068C4F602014CF6CD488842CCF6CC48C3
:1041C00018DC40F20F41C4F20201884234DC6F2156
:1041D000C4F20201884263DC3F21C4F2020188423A
:1041E00000F3A8801021C4F20201884200F0F98097
:1041F0002821F1E045F20741C5F60201884233DC8F
:1042000042F65741C4F60201884257DC42F62F417C
:10421000C4F60201884200F3958042F60841C4F6D4
:104220000201884200F05F8142F61C41C4F602019F
:10423000884200F058812BE340F26F41C4F2020142
:10424000884251DC40F23F41C4F20201884200F34F
:10425000898040F21041C4F20201884200F0C1801E
:1042600040F22841B8E000BF45F25741C5F60201CF
:10427000884249DC45F22F41C5F6020188427BDCC9
:1042800045F20841C5F60201884200F02C8145F252
:104290001C41C5F60201884200F02581F8E200BF0A
:1042A0009F21C4F20201884276DC7021C4F202012F
:1042B000884200F0968088218EE000BF42F67F4160
:1042C000C4F6020188426FDC42F65841C4F602018E
:1042D000884200F0088142F66C41C4F6020188422F
:1042E00000F00181D4E200BF40F29F41C4F202011C
:1042F000884269DC40F27041C4F20201884270D009
:1043000040F2884168E000BF45F27F41C5F60201F6
:10431000884200F3DB8045F25841C5F6020188422D
:1043200000F0E18045F26C41C5F60201884200F0E0
:10433000DA80ADE24021C4F20201884251D0582116
:104340004AE000BF42F63041C4F60201884200F064
:10435000CA8042F64441C4F60201884200F0C3809C
:1043600096E200BF40F24041C4F20201884238D0D8
:1043700040F2584130E000BF45F23041C5F602013D
:10438000884200F0B08045F24441C5F602018842FF
:1043900000F0A9807CE200BFA021C4F202018842A3
:1043A0001FD0B82118E000BF42F68041C4F60201D8
:1043B000884200F0988042F69441C4F60201884297
:1043C00000F0918064E200BF40F2A041C4F202011B
:1043D000884206D040F2B841C4F20201884240F05F
:1043E0005782022184F83510002184F834100168C6
:1043F00021F00101016000BF20680168C9070DD0EC
:1044000001F09AFB401B0628F6D3202060650320AC
:1044100084F83500012001B0BDE8F08348F23F0286
:1044200004F108060168CFF610621140D4F818C0F4
:104430006CCE11431943E3692943256A0E43616A2F
:104440003343042943EA050343EA0C0303D1D4E9C7
:104450000B652E433343666843F48012A6F13F0791
:10446000A6F12905042FA6F1470938BF1346062DEA
:10447000A6F14F0E38BF1346B9F1020F26F003071D
:1044800038BF1346BEF1040F38BF1346742F08BF60
:10449000134604290360426922F0070241EA02013F
:1044A00040F07E80D4E90A53002B41EA050100F078
:1044B0007780BCF5005F59D0BCF1000F62D1022DAE
:1044C00063D0012D58D0002D5FD069E045F28041C6
:1044D000C5F60201884206D045F29441C5F60201B4
:1044E000884240F0D58104F1080E022184F835108D
:1044F000002184F834100168E7699EE80450A2F1B5
:104500008003D4F82090B3FA83F3402A4FEA531380
:10451000D4E905654FEA833345EA07026FF31011CA
:1045200042EA060208BF102341EADC0142EA0E0219
:1045300019434AF6F833CAF2FD7341EAD201C218B0
:1045400041EA1911A2FB082301606FF0030000EAA1
:104550009300E0652046FDF763FBE16D012201F069
:104560001F0102FA01F1416025E000BF032D17D8B9
:10457000DFE805F00E0B0E02A3F1C072B2FA82F270
:10458000520904E0032D03D30AD1C3F300623AB108
:1045900040206065012084F8350001B0BDE8F0835B
:1045A00041612046FDF73CFBE16D3F2201F01F0118
:1045B00002FA01F1816040F26F412068C4F2020109
:1045C000884219DC9F21C4F20201884232DC572163
:1045D000C4F20201884259DC1021C4F2020188426F
:1045E00000F097802821C4F20201884200F09180F7
:1045F0004021C4F2020189E045F22F41C5F60201D3
:1046000088422DDC40F2B741C4F2020188424BDC03
:1046100040F27041C4F2020188427AD040F28841EF
:10462000C4F20201884274D040F2A041C4F20201F7
:104630006CE000BF40F22741C4F20201884243DC33
:10464000A021C4F20201884263D0B821C4F2020161
:1046500088425ED040F21041C4F2020156E000BF31
:1046600045F26B41C5F6020188423FDC45F230411C
:10467000C5F6020188424CD045F24441C5F602011C
:10468000884246D045F258413EE000BF5821C4F26E
:10469000020188423DD07021C4F20201884238D024
:1046A0008821C4F2020131E040F2B841C4F20201B3
:1046B00088422ED045F20841C5F60201884228D032
:1046C00045F21C4120E000BF40F22841C4F2020143
:1046D00088421ED040F24041C4F20201884218D004
:1046E00040F25841C4F2020110E000BF45F26C41B3
:1046F000C5F6020188420CD045F29441C5F602018C
:10470000884206D045F28041C5F60201884240F059
:10471000E38045F2574C45F6FC01C5F6020CC5F6A0
:104720000201604512DC45F22F42C5F602029042BA
:1047300020DC45F20842C5F60202904234D045F230
:104740001C42C5F6020290422ED071E045F27F4233
:10475000C5F6020290421BDC45F25842C5F6020241
:10476000904221D045F26C42C5F6020290421BD025
:104770005EE000BF45F23042C5F60202904213D01F
:1047800045F24442C5F6020290420DD050E000BF0F
:1047900045F29442C5F60202904205D045F28042AD
:1047A000C5F60202904243D100F0FC02A1F1FC05E3
:1047B000083AA1F17C06A2FB08231B0905EB83053F
:1047C00003F01F02A3682566802B4FF0010303FA54
:1047D00002F26666A26605D1002060602860726001
:1047E0001EE000BF6768FBB2013F072F2B607260BD
:1047F00016D85E1E082E19D2604501F1440237DC3E
:1048000045F22F47C5F60207B84243DC45F2084798
:10481000C5F60207B84253D045F21C474CE000BF32
:1048200000206067C4E91B0056E000BFE06E4EE068
:1048300000F0F8024AF6AB23103ACAF6AA23A2FB0C
:10484000032740F20F43C4F2020308253A099842B5
:1048500003F1AA06134688BF05EB171340F60005BF
:10486000B042C4F2020505F1800628BF1346A5E751
:1048700045F27F47C5F60207B84215DC45F25847B6
:10488000C5F60207B8421BD045F26C4714E000BFE2
:104890004020BBE545F23047C5F60207B8420FD0CD
:1048A00045F2444708E000BF45F28047C5F60207DD
:1048B000B84205D045F29447C5F60207B84213D175
:1048C00001EB83000121E066B140226761670021AE
:1048D0000160D4E91C01416000206065012184F879
:1048E000351001B0BDE8F08340F60000C4F20200CC
:1048F00000F1FC0100F5A072E2E7000000000000FA
:1049000040B1B0B5054690F83400012804D102202A
:10491000B0BD00BF01207047012085F8340095F834
:104920003500012828D1022085F83500002068656F
:104930002868046824F0010404602846FDF704FA9E
:1049400040F20F422868C4F2020240F26F419042E6
:10495000C4F2020118DC6F23C4F20203984225DC82
:104960003F23C4F2020398423CDC1023C4F202034A
:1049700098425ED0282357E04FF40060686500201D
:1049800085F834000120B0BD88421BDC40F23F4373
:10499000C4F2020398422DDC40F21043C4F2020339
:1049A000984246D040F228433EE000BF9F23C4F225
:1049B0000203984228DC7023C4F20203984238D0E4
:1049C000882331E040F29F43C4F20203984223DC83
:1049D00040F27043C4F2020398422AD040F2884366
:1049E00022E000BF4023C4F20203984221D05823A2
:1049F0001AE000BF40F24043C4F20203984218D0CC
:104A000040F2584310E000BFA023C4F202039842D2
:104A10000FD0B82308E000BF40F2B843C4F202034D
:104A2000984206D040F2A043C4F20203984240F0FC
:104A30002F8103680B2464F3440303602B6C1BB1C8
:104A40000823046823430360884219DC9F23C4F2CF
:104A50000203984232DC5723C4F20203984259DC25
:104A60001023C4F20203984200F096802823C4F277
:104A70000203984200F090804023C4F2020389E0D0
:104A800045F22F43C5F6020398422DDC40F2B743AE
:104A9000C4F2020398424BDC40F27043C4F20203BA
:104AA000984279D040F28843C4F20203984273D00E
:104AB00040F2A043C4F202036CE000BF40F227437F
:104AC000C4F20203984243DCA023C4F202039842DA
:104AD00062D0B823C4F2020398425DD040F2104382
:104AE000C4F2020356E000BF45F26B43C5F6020371
:104AF00098423FDC45F23043C5F6020398424BD062
:104B000045F24443C5F60203984245D045F2584366
:104B10003EE000BF5823C4F2020398423CD0702309
:104B2000C4F20203984237D08823C4F2020331E072
:104B300040F2B843C4F2020398422DD045F2084334
:104B4000C5F60203984227D045F21C4320E000BF7F
:104B500040F22843C4F2020398421DD040F2404381
:104B6000C4F20203984217D040F25843C4F2020341
:104B700010E000BF45F26C43C5F6020398420BD02B
:104B800045F29443C5F60203984205D045F28043AE
:104B9000C5F60203984274D12B6E1C68E40303D55A
:104BA0001C6844F480741C60EB6E1BB11D6845F4F6
:104BB00080751D60904211DC6F21C4F202018842B1
:104BC0001EDC3F21C4F20201884235DC1021C4F210
:104BD0000201884255D0282150E000BF88421BDCEA
:104BE00040F23F41C4F2020188422DDC40F2104104
:104BF000C4F20201884244D040F228413EE000BFA6
:104C00009F21C4F20201884228DC7021C4F2020113
:104C1000884236D0882131E040F29F41C4F202013F
:104C2000884223DC40F27041C4F20201884228D05D
:104C300040F2884122E000BF4021C4F202018842D4
:104C40001FD058211AE000BF40F24041C4F20201D7
:104C5000884216D040F2584110E000BFA021C4F2B3
:104C6000020188420DD0B82108E000BF40F2B841EF
:104C7000C4F20201884204D040F2A041C4F2020111
:104C80008842016841F0010101600020B0BD00BF11
:104C90000368052464F3430303602B6C002B3FF48B
:104CA000D3AE0423CDE60000B0B5044600F044FFC7
:104CB00040F204010546C2F20001621C097818BFE7
:104CC0000C4400BF00F038FF401BA042FAD3B0BD37
:104CD00090F89830013B012B0ED80068836D0B4291
:104CE00012D0836D0B408B4216D1C36D43F002038B
:104CF000C3658B0514D418E000F19C010120022249
:104D00000B681A430A607047C36D43F00103C36523
:104D10008B0505D409E000BF0323C3658B0504D5CB
:104D2000D0F8E0301343C0F8E0304B0504D5D0F89C
:104D3000E4301A43C0F8E4204FF6FF72436DC3F627
:104D4000CF720A401A4342658A0F4AF614010020C6
:104D5000C4F200010B681A430A60704700000000AB
:104D600090F89830022B1BD12DE9F0410668D6F857
:104D7000C03013F07C5F1BD0D6F8C4309B0221D426
:104D8000D6F8C4300C69C3F3044CD1E90035002DCA
:104D90008D6821D023432B4343F0804E20E000BF99
:104DA000D0F89C1041F00801C0F89C100120704719
:104DB000D0F89C1041F02001C0F89C100120BDE803
:104DC000F08100BFD0F89C1041F40071C0F89C1035
:104DD0000120BDE8F08100BF44EA834343EA050EA9
:104DE000836E0D6AD1E906840CFB03F744EA056380
:104DF000D0F884404D6943EA080343EA050804EB10
:104E00008703CD6844F827E048EA05075F60CF686C
:104E1000B7F5803F0FD342F6443508330332002400
:104E2000C9F20405171957F8037C1F51CF890434C0
:104E3000EF5DBC42F6D3012101FA0CF1C6F8D010A7
:104E4000C0F894100020BDE8F081000000000000D0
:104E5000704700000000000090F89820013A012AF5
:104E60000CD880B50A68002ACA680FD00B69072AD7
:104E700043EA427E18D18B691BE000BFD0F89C103A
:104E800041F00201C0F89C1001207047072A19D197
:104E90000A69D1E906C3120442EA032242EA0C027B
:104EA00042F0605218E000BFD1F808C04B6943EAF5
:104EB0008C73006F496800EBC10240F831E0536029
:104EC000002080BD8B68D1E904CE9B0743EAC26213
:104ED00042EA0C4242EA0E024968C06E40F82120C4
:104EE000002080BD0000000001A032F05DBB00BFCB
:104EF000464443414E206572726F7200000000000C
:104F000070470000000000002DE9F04390F8987011
:104F1000022F1DD1402925D10768D7F8A06016F4CB
:104F2000FE0F00F0AF80D7F8A460760600F0BC80DA
:104F3000D7F8A46000F17404F60148BFD7F8A06068
:104F4000D7F8A470466CC7F30525AC4631E000BF26
:104F5000D0F89C1041F00801C0F89C100120BDE879
:104F6000F08300BF41291BD10768D7F8B06016F461
:104F7000FE0F00F08780D7F8B460760600F09480CA
:104F8000D7F8B46000F17804F60148BFD7F8B060F4
:104F9000D7F8B470C66CC7F30525AC4609E000BF6E
:104FA000076D8F426ED900F17C04456D4FF0000C07
:104FB0000E467543246804EB850E54F8257017F0EF
:104FC0008047576054F8257027F0604608BFC7F344
:104FD0008A46166054F8257007F00057976054F819
:104FE000254004F000441461BEF80440D461DEF8AA
:104FF000044014F47024D460DEF8044004F48014F7
:105000005461DEF8044004F4001494619EF80740F3
:1050100004F07F041462DEF804404FEAD474546252
:1050200028D042F644380024C9F204080EEB0406E6
:10503000651C377A1F55D78918F80770BD4219D2F9
:105040001F19757A7D70D58918F80590A51C4D45F6
:105050003FBFB57ABD70D58918F805903CBFE51CF7
:105060004D4507D2F57A0434FD70D58918F80550FE
:10507000AC42DBD340290FD10068C0F8A8C00020A3
:10508000BDE8F083D0F89C1041F02001C0F89C10DE
:105090000120BDE8F08300BF41290FD10068C0F8AE
:1050A000B8C00020BDE8F083D0F89C1041F48071B6
:1050B000C0F89C100120BDE8F08300BF1F2909D86B
:1050C0000068012202FA01F1C0F898100020BDE842
:1050D000F08300BF006801F01F01012202FA01F114
:1050E000C0F89C100020BDE8F08300000000000024
:1050F00070470000000000002DE9F04F89B0044621
:105100004AF61000C4F2000001684AF61400C4F226
:1051100000000268206802EA0108056DD0F854908A
:10512000036D0893436D0793036D0293436D0193E1
:10513000076D436D0593036D0493436D0393D0F89E
:1051400054A0D0F850B05FEACA5306970FD51BF4AD
:1051500080710CD04FF4807101654AF61001002077
:10516000C4F2000108602046FFF7C2FF20685FEA32
:105170004A5105EA09064FEA887717D54AF6100919
:105180001BF48061C4F2000914D0D0F8DC10D0F810
:10519000E42011404FF4806202650020C9F800004D
:1051A000204600F0CDFB206804E000BF4AF610095D
:1051B000C4F20009DDE9072101EA020506F47046A0
:1051C00057B10021016508F00300C9F8000020462E
:1051D0003946FFF73DFE2068DDE90121DDF80C804E
:1051E00001EA020705F00F0546B106650020C9F87F
:1051F00000002046314600F0ABFB206807F0F006C7
:1052000045B105650020C9F800002046294600F098
:105210005BFB2068DDE9045746B106650020C9F84C
:1052200000002046314600F053FB2068069E5FEAEE
:105230000A510CD51BF4006109D04FF400610165DF
:105240000020C9F80000204600F086FB20685FEAD5
:105250008A5111D51BF400710ED0D0F8D810D0F8B7
:10526000E02011404FF4007202650020C9F80000F0
:10527000204600F069FB20685FEA0A310CD51BF478
:10528000002109D04FF4002101650020C9F8000079
:10529000204600F015FB20685FEACA310CD51BF4EC
:1052A000803109D04FF4803101650020C9F8000039
:1052B000204600F041FB20685FEA4A3105EA080514
:1052C0000CD51BF4802109D04FF48021016500200A
:1052D000C9F80000204600F02BFB20685FEA8A3105
:1052E00006EA070205F060710ED51BF400330BD0FF
:1052F0004FF4003303650023C9F80030D4F89C3024
:1053000043F08003C4F89C3002F0715539B1016557
:105310000020C9F800002046FFF7F2FD206845B1E3
:1053200005650021C9F80010D4F89C102943C4F881
:105330009C10A9F5016188420AD0D4F89C0000288D
:1053400068D0204609B0BDE8F04FFFF7CDBD00BFE3
:10535000606881688907F0D0016A426A036A476A17
:10536000114003EA070202F03005D0F82080D0F89F
:105370002490D0F820B0D0F824A0026A089211F04E
:105380000F01426A0792466A026A069203D00162DE
:10539000204600F0C1FA08EA09072DB160682946E5
:1053A0000562204600F0C0FA70060BEA0A0607F410
:1053B000C0750ED5069810F040000AD060684023F2
:1053C000C16BC26B090C02F03F020362204600F081
:1053D000A7FADDE9071000EA010706F4FC462DB143
:1053E000606829460562204600F092FA07F4F02032
:1053F00036B161680E62D4F89C103143C4F89C1039
:1054000000289AD061680862D4F89C100843C4F858
:105410009C0092E709B0BDE8F08F0000000000009A
:10542000F0B12DE9F04F83B04AF200080446C4F20F
:1054300000080068404533D094F89810B9B38169EA
:1054400021F01001816100F077FB05462068816939
:10545000090707D500F070FB401B0B28F6D312E0BC
:1054600001207047816941F00101816100F064FB16
:10547000054600BF20688169C90721D100F05CFBA7
:10548000401B0B28F6D30120D4F89C100843C4F825
:105490009C00032084F89800012003B0BDE8F08F41
:1054A00008F58071616094F898100029C7D1002038
:1054B00084F89900204600F0B3F92068BFE700BFE8
:1054C000816941F002018161217C826922F0400200
:1054D000012918BF40328261617C826922F48042D6
:1054E000012908BF02F580428261A17C826922F411
:1054F0008052012918BF02F580528261816921F42E
:105500004073D4E902120B438361836923F0A4033F
:105510008361036923F0100303619AB1012A0DD05E
:10552000022A09D08369032A43F080038361036957
:1055300043F01002026105D1202200E004228369B9
:105540001A438261D4E90572E369561E6FF0FF02C7
:10555000256A02EB0323B1F5407F43EA4663A5F1D8
:10556000010646EA030640F20003CFF6FF7303EBA1
:10557000074746EA0701C16110D1D4E90B65D4E9B8
:105580000917013F02EB06226FF00F063A4306EBC4
:1055900005173A4303EB01411143C160236E2BB160
:1055A000616ED0F8C0201143C0F8C010E16DCDE9A4
:1055B0000113D94242F27041C9F2040109D0D0F876
:1055C000C820A36E22F0070251F823301A43C0F816
:1055D000C820D4F840A0BAF1000F09D0D0F8BC2000
:1055E000636C22F0070251F823301A43C0F8BC2044
:1055F000D4F848C0BCF1000F0AD0D0F8BC20E36C4E
:1056000022F0700251F8233042EA0312C0F8BC20A5
:10561000D4F850B0BBF1000F0AD0D0F8BC20636DB5
:1056200022F4E06251F8231042EA0121C0F8BC10D4
:10563000404504D161688A6822F003028A60002133
:10564000C4F89410C4F89C10012184F8981004F157
:105650003409D0F884104FF6FC729143656C99E8D8
:105660000C02009541EA8201C0F88410D0F8841041
:1056700021F47F0141EA0341C0F884109918D0F861
:1056800088306FF38F0343EA8103C0F88830D0F885
:10569000883023F4FE0343EA0943C0F8883001EB65
:1056A0004903D0F8A0606FF38F0646EA8306C0F87E
:1056B000A060D0F8A06026F4FE0646EA0A46C0F8CC
:1056C000A06005FB0A36D0F8B0306FF38F0343EAD1
:1056D0008603C0F8B030D0F8B03023F4FE0343EABC
:1056E0000C43C0F8B030E36CD0F8AC506FF38F05CA
:1056F00003FB0C6645EA8605C0F8AC50D4F854802C
:1057000008FB0B65D0F8F0606FF38F0646EA85065C
:10571000C0F8F060D0F8F0E0A66D2EF47C1747EAF0
:105720000647C0F8F070F70007EB8507D0F8C050C7
:105730006FF38F052F43C0F8C070D0F8C070009D84
:1057400027F47C1705FB0AF5DDF804A003FB0C53D6
:1057500047EA0A47C0F8C0704AF20007D0F8C0E034
:10576000C4F20007DDF808C007F5406707EB8202C6
:1057700007EB81012EF07C5747EA0C67C0F8C07038
:1057800001EBC90008FB0B372167A16E00EB850513
:10579000606700EB8303E266C4E91E530AFB01F372
:1057A00000EB87000CFB01F1C4F8800000EBC600A1
:1057B000C4F8840000EB8300C4F8880000EB81008B
:1057C0004DF2FC31C4F20001C4F89000884201D9C6
:1057D000202059E682421FD21146002041F8040BD6
:1057E000D4F890309942BFF458AE506002F10801ED
:1057F000D4F8903099423FBF906002F10C01D4F888
:1058000090309942BFF449AED0601032D4F8901075
:105810008A42E1D341E600BF002003B0BDE8F08F2B
:1058200010B5B6B06946044601F10800B821FBF78F
:1058300042F84AF200412068C4F20001884201D0D7
:1058400036B010BD4FF4004000904FF080501E90D5
:1058500068460024019401F05BF808B1FCF7D8FC1D
:1058600044F24050C5F60200C16841F48071C16045
:10587000C16801F4807131913199016841F00201F0
:105880000160006831A900F00200319031984FF4B6
:10589000405031900220CDE932040920359040F289
:1058A00000403494C5F6020000F05AF8142000219C
:1058B000002200F031FC142000F01AFC36B010BDBC
:1058C000704700000000000070470000000000006A
:1058D000704700000000000090F8981001290DD1D9
:1058E000022180F8981001688A6922F001028A6119
:1058F0000021C0F89C100846704700BFD0F89C10EB
:1059000041F00401C0F89C10012070470000000025
:105910007047000000000000704700000000000019
:105920007047000000000000704700000000000009
:1059300070470000000000007047000000000000F9
:1059400070470000000000007047000000000000E9
:1059500070470000000000007047000000000000D9
:105960002DE9F04F82B00D68002D00F0C78000F1E6
:10597000264242F2004402F1FF728305C5F602049A
:105980000A27A04243EA922208BF0927092A40F2C7
:10599000040C38BF1746C5F6000C4FF0000E0097F8
:1059A000002700260AE000BF01360D6835FA06F22E
:1059B00007F102070EF1040E00F0A080012202FAA6
:1059C00006FB15EA0B08EFD0D1F804A003220AF079
:1059D000030502FA07F36C1E6FEA0309012C0FD8C6
:1059E0008368CC6803EA0903BC4023438360CAF39D
:1059F0000014436823EA0B03B4402343436003E0ED
:105A0000032D01D1032520E0C3688C6803EA090354
:105A1000BC40022D43EA0403C36016D16FF00302B9
:105A20000EF01C0502EA56030F22034402FA05FB9E
:105A3000D3F820A00C692AEA0B0AAC4044EA0A0415
:105A40001C62D1F804A00AF00305036805FA07F404
:105A500003EA09031AF4403F43EA04030360A3D0B6
:105A600044F2545240F2084AC5F60202C5F6000A52
:105A7000136843F00203136013680F2203F002035C
:105A8000019326F00303019C0EF00C0453F80A90D6
:105A900002FA04F5009A29EA050502FA04F44FF027
:105AA000B0492C4343F80A40D9F800304C6843EA27
:105AB0000805E20258BF23EA0805C9F80050A5020C
:105AC000DCF8002042EA080358BF22EA0803A503D5
:105AD000CCF80030DCF8802042EA080358BF22EA04
