:020000040800F2
:1000000010050020C50200088F270008D32600082D
:100010008D270008D1030008B93500080000000052
:10002000000000000000000000000000F52D0008A6
:10003000D303000800000000B12B0008F72D0008D2
:10004000DF020008DF020008DF020008DF0200080C
:10005000DF020008DF020008DF020008DF020008FC
:10006000DF020008DF020008DF020008DF020008EC
:10007000DF020008DF020008DF020008DF020008DC
:10008000DF020008DF020008DF020008DF020008CC
:10009000DF020008DF020008DF020008DF020008BC
:1000A000DF020008DF020008DF020008DF020008AC
:1000B000DF020008DF020008DF020008DF0200089C
:1000C000DF020008DF020008DF020008DF0200088C
:1000D000DF020008DF020008DF020008DF0200087C
:1000E000DF020008DF020008DF020008DF0200086C
:1000F000DF020008DF020008DF020008DF0200085C
:10010000DF020008DF020008DF020008DF0200084B
:10011000DF020008DF020008DF020008DF0200083B
:10012000DF020008DF020008DF020008DF0200082B
:10013000DF0200080000000000000000DF020008ED
:10014000DF020008DF020008DF020008DF0200080B
:10015000DF020008DF020008DF020008DF020008FB
:10016000DF020008DF020008DF020008DF020008EB
:10017000DF020008DF020008DF020008DF020008DB
:10018000DF020008DF020008DF020008DF020008CB
:10019000DF020008DF020008DF020008DF020008BB
:1001A000DF020008DF020008DF020008DF020008AB
:1001B000DF020008DF020008DF020008DF0200089B
:1001C000DF020008DF02000800000000000000005D
:1001D0000000000000000000DF0200080000000036
:1001E000000000000000000000000000000000000F
:1001F0000000000000000000DF020008DF0200082D
:10020000DF020008DF02000800000000DF02000833
:10021000DF020008DF020008DF020008DF0200083A
:10022000DF020008DF020008DF0200080000000013
:10023000DF020008DF02000800000000DF02000803
:10024000DF020008DF020008DF020008DF0200080A
:10025000DF020008DF020008DF020008DF020008FA
:10026000DF020008DF020008DF020008DF020008EA
:10027000DF020008DF020008DF02000800000000C3
:10028000DF020008DF02000800000000DF020008B3
:1002900000000000DF020008DF020008DF020008A3
:1002A000DF020008DF020008DF020008DFF810D0DC
:1002B00000F07CF800480047F5380008AFF30080F4
:1002C000100500200648804706480047FEE7FEE785
:1002D000FEE7FEE7FEE7FEE7FEE7FEE7FEE7FEE7F6
:1002E000BD2E0008AD0200082DE9F05F0546002094
:1002F00092469B4688460646814640241BE0284697
:1003000041464746224600F041F853465A46C01A35
:10031000914110D311461846224600F028F82D1AB4
:1003200067EB01084F4622460120002100F01FF82C
:1003300017EB00094E41201EA4F10104DFDC484602
:1003400031462A464346BDE8F09FD2B201E000F8AC
:10035000012B491EFBD270470022F6E710B5134669
:100360000A4604461946FFF7F0FF204610BD202A32
:1003700004DB203A00FA02F1002070479140C2F1FC
:10038000200320FA03F3194390407047202A04DB2E
:10039000203A21FA02F00021704721FA02F3D040FE
:1003A000C2F120029140084319467047064C074DA0
:1003B00006E0E06840F0010394E807009847103435
:1003C000AC42F6D3FFF776FFB03A0008D03A000807
:1003D000FEE770472DE9FC4F01257E4C00234FF0CE
:1003E000030A4FF0B04E4FF00F0BEBE005FA03F6A7
:1003F00037403A0077D04F68012F05D0022F03D045
:10040000112F01D0122F1AD187684FEA4308D1F873
:100410000CC00AFA08F927EA09070CFA08FC4CEAAA
:10042000070CC0F808C0476891F804C0B743CCF384
:10043000001C0CFA03FC4CEA070CC0F804C0C668A8
:100440004FEA430CD1F80880E1460AFA0CF7BE43A4
:10045000019708FA09F848EA0608C0F80C804E68C7
:10046000022E01D0122E12D1DE084FEA437C00EB9F
:10047000860600960F69366A4FEADC6C0BFA0CF8B8
:1004800007FA0CF726EA08063743009E37620E7912
:100490000768DDF804C006F0030606FA09F627EA45
:1004A0000C073E4306604E68F6001CD54A4E37687E
:1004B00047F00207376036689F0706F0020600968D
:1004C00023F0030606F1B046B1463F0FD6F80864A4
:1004D000DFF808810BFA07FC404526EA0C0603D139
:1004E0004FF0000C41E06CE0DFF8F4C0604502D151
:1004F0004FF0010C39E0DFF8ECC0604502D14FF05D
:10050000020C32E0DFF8E0C0604502D14FF0030C8E
:100510002BE0DFF8D8C0604502D14FF0040C24E096
:10052000DFF8CCC0604502D14FF0050C1DE0DFF8CC
:10053000C4C0604502D14FF0060C16E0DFF8B8C029
:10054000604502D14FF0070C0FE0DFF8B0C0604506
:1005500002D14FF0080C08E0DFF8A4C0604502D1DA
:100560004FF0090C01E04FF00A0C0CFA07FC4CEAC2
:10057000060CC9F808C426684F6826EA0206FF037D
:1005800000D51643266066684F6826EA0206BF0358
:1005900000D516436660D1F804C07646DEF80070D8
:1005A0005FEACC2C27EA020700D517433760D1F861
:1005B00004C077685FEA8C2C27EA020700D517434E
:1005C00077605B1C0A681746DA407FF40FAFBDE81E
:1005D000FC8F00008000005854450258000002586B
:1005E0000004025800080258000C0258001002587B
:1005F0000014025800180258001C0258002002582B
:10060000002402580AB1816170470904FBE7000029
:10061000014880687047000004000020024881689B
:10062000027811448160704704000020032010B557
:1006300000F078F801F0C6FB0F4A104914681368FF
:10064000C4F3032203F00F038A5CC95C02F01F02AB
:1006500001F01F01D0400A4A20FA01F11160094956
:100660000860002000F010F808B1012010BD00F073
:100670002BF8002010BD000018440258A03A0008D2
:10068000140000201000002070B50D4D044628789D
:10069000A0B14FF47A71B1FBF0F00A490968B1FBDF
:1006A000F0F001F0C1FE48B9102C07D2002221461B
:1006B000501E00F017F800206C6070BD012070BD66
:1006C0000400002010000020054808B5016841F032
:1006D00002010160006800F00200009008BD000007
:1006E000544502580E4BF0B41B680D46C3F3022369
:1006F000C3F10706042E00D90426191D072901D2CB
:10070000002300E0DB1E012404FA06F19C40491E90
:100710002940641E994014402143F0BC02F05EBFA2
:100720000CED00E0064900F0070210B54FF6FF049B
:100730000868044B204040EA02201843086010BDBE
:100740000CED00E00000FA052DE9F04F0268834649
:10075000FE484FF0000A8DB00C468242564602D148
:100760000025012001E001250020E8460027814600
:1007700007EB47017F1C08EBC101F8B202F008F853
:1007800020B108204FF0010ACBF85800FFB2022F29
:10079000EED3BAF1000F7CD1DFF8B0E3DEF8000051
:1007A000C00707D0DEF8001046F0010621F0010175
:1007B000CEF80010E6480068C00706D0E44846F0CE
:1007C0000206016821F00101016005EB45030C936D
:1007D000E048424608EBC303DFF87CB30121DC4666
:1007E0009F6800EB8707D7F8008428F48078C7F863
:1007F0000084DBF80070FF0732D0DCF80070B9F13C
:10080000010F27F00107CCF800705CD1069B00EBCC
:100810008303D3F8007447F00207C3F80074079B02
:100820003BB100EB8303D3F8007447F02007C3F813
:100830000074099B4BB121EA030300EB8303D3F857
:10084000047447F48027C3F804740A9BDBB321EADD
:10085000030700EB8703D3F8047447F0806730E0A8
:100860000C9F52F8377077B300EB8707D7F800C4B6
:100870002CF0010CC7F800C45F683FB100EB87079C
:10088000D7F800C42CF0100CC7F800C4D3F80CC083
:1008900000E057E1BCF1000F09D021EA0C0700EBA2
:1008A0008707D7F804C42CF4803CC7F804C41B693C
:1008B0004BB121EA030700EB8703D3F8047427F058
:1008C0008077C3F8047409EB4903D4F800C0CDF86D
:1008D00030C0914652F83370BC4518D009EBC302C2
:1008E000D4F804C0D2F80480C44510D0D4F808C0AD
:1008F000D2F80880C4450AD0D4F80CC0D2F80C80D5
:10090000C44504D0D4F810C01269944551D10C9A52
:10091000BA4219D109EBC302D4F804C0D2F804805A
:10092000C44511D1D4F80CC0D2F80C80C4450BD109
:10093000D4F810C01269944506D1DBF8003043F0BA
:100940000103CBF8003034E000EB870709EBC3026A
:10095000D7F8003423F00103C7F8003453683BB1E3
:1009600000EB8303D3F8007427F01007C3F800747A
:10097000936800EB8303D3F8007427F48077C3F8FF
:100980000074D3684BB121EA030700EB8703D3F867
:10099000047427F48037C3F8047412694AB121EA59
:1009A000020300EB8302D2F8043423F08073C2F810
:1009B0000434A3685A4600EB8303D3F8007427F489
:1009C000407747EA452747F48077C3F80074DBF89F
:1009D00000C063695F1ECCF3074C674508D95F4FC1
:1009E000D2F800C007EB03472CF47F033B431360AE
:1009F0001268D207226800EB8202D2F800343FD09E
:100A000023F003035B1CC2F8003462684AB100EBB8
:100A10008202D2F8003423F0300343F01003C2F80E
:100A20000034E268D3030AD521EA020300EB830213
:100A3000D2F8043423F4E02343F480330AE05AB1BB
:100A400021EA020300EB8302D2F8043423F0E063CE
:100A500043F08073C2F804342269D30307D591436D
:100A600000EB8100D0F8041421F4E0214AE0EAB35D
:100A7000914300EB8100D0F8041421F0E0614EE0D6
:100A800001EB450723F003033B43C2F800346268DF
:100A90005AB100EB8202D2F8003423F0300343EA6B
:100AA000451343F01003C2F80034E268D3030CD5B9
:100AB00021EA020300EB8302D2F8043423F4E0239A
:100AC00043EA854343F480330CE06AB121EA020330
:100AD00000EB8302D2F8043423F0E06343EA856339
:100AE00043F08073C2F80434226900E01BE0D303B2
:100AF0000BD5914300EB8100D0F8041421F4E021E0
:100B000041EA854141F440310BE062B1914300EB91
:100B10008100D0F8041421F0E06141EA856141F0E0
:100B20004071C0F80414F00705D0DEF8001041F061
:100B30000101CEF80010B00704D50548016841F066
:100B4000010101600DB05046BDE8F08F0050005229
:100B500000A0005200B0005200B400520000FFFF9D
:100B6000F8B516460D460446FFF752FD0746606D80
:100B7000022804D0142807D0242809D00DE0E0680A
:100B8000B0F1806F0DD108E02868022809D002E09A
:100B90002868012805D0032803D01021A165012071
:100BA000F8BD00223B4620212046009601F0DCFFE4
:100BB0000028F5D1A0652946204601F057FE0028FF
:100BC000EED1A96B61B129680422A1B1012914D029
:100BD0000229E5D1616D14290DD024216165F8BD8C
:100BE00001223B4602212046009601F0BDFF22680B
:100BF00002215162F8BD6265F8BD616D2429FAD009
:100C00001421EBE770B504004FF0000510D0206808
:100C1000016821F0010101602068816821F0020172
:100C20008160204600F0BEF800206065284670BD57
:100C30000125FBE7F8B500250446FFF7E9FC064669
:100C400024B10020A065606D10B173E0012571E052
:100C5000204600F0A9F841F28830E065218A6FF063
:100C6000FF02E0681502636905EB0145216828432E
:100C7000E769D4E90DC502EB032343EA0C1E8B6838
:100C8000DFF8B8C040EA0E002843384303EA0C03FB
:100C9000184388602068236AC16821F4E021194361
:100CA000C1602368218EE06B40EA01401861216831
:100CB000206C4861D4E90001036802EB012223F4AF
:100CC000F85111430160E06D00222021334600906D
:100CD000204601F049FF05002CD12068626AC168F6
:100CE000521E21F0FF011143C1602068A268016813
:100CF00021F04001114301602168D4E90A02D1F8D2
:100D00000831104323F0A0421043C1F808012068C5
:100D1000016841F001010160A069022804D1206846
:100D2000816841F002018160E068B0F1806F03D01A
:100D3000022060652846F8BD0120FAE784F8E0F853
:100D4000F8B50D460446FFF763FC0346606D1026B8
:100D5000042802D00120A665F8BDE06D0022202104
:100D60000090204601F000FF0028F5D18821616540
:100D7000296808290AD122686968C2F830112168F7
:100D80004E6221680A6842F480120A602168044CAD
:100D90002A680B68234043F040531A430A60F8BDA9
:100DA000F7FFFFCF7047000070B586B004461421EE
:100DB0006846FFF7D1FA3D492068884274D13C4823
:100DC000016841F400110160016801F4001105910E
:100DD000016841F480410160006800F480400590A2
:100DE00033480C30016841F002010160016801F0F4
:100DF00002010591016841F002010160016801F002
:100E000002010591016841F008010160016801F0EB
:100E100008010591016841F008010160016801F0D5
:100E200008010591016841F010010160016801F0BD
:100E300010010591016841F008010160006801ABF3
:100E400004251C4E00F0080005900924009502209E
:100E50000021032283E8170069463046FFF7BAFAFB
:100E6000402000900A21304604916946FFF7B2FA0B
:100E7000114E68026946049400903046FFF7AAFAC2
:100E8000A8026946049400903046FFF7A3FA0B4885
:100E9000694600950494FFF79DFAE80269460494B8
:100EA00000903046FFF796FA06B070BD0050005231
:100EB0003445025800040258000C02580010025831
:100EC0002DE9F84315460E460446FFF7A1FB804680
:100ED000206800F15007816CD0F810213EB1636D9D
:100EE000042B06D01021A1650120BDE8F88308215C
:100EF000F9E7036C5B1CE364E36CA364666403685A
:100F000023F0405343F080530360E068B0F1806FFA
:100F1000206804D0D0F8003113F4E06F01D0816470
:100F200001E0C0F810210122062143462046009529
:100F300001F01AFE0028D8D13878616C0870606C16
:100F4000401C6064E06C401EE064E06C0028EAD164
:100F50000122434602212046009501F005FE0028AB
:100F6000C3D12268022151626165BEE7134970B5A1
:100F70000A68D243520705D5096801F0070181428A
:100F800013D118E00A6822F0070202430A60FFF753
:100F90003FFB0A4D4FF47A760446083D07E000BF58
:100FA000FFF736FB001BB04201D9012070BD286855
:100FB000C0438004F4D4002070BD00000C480258E7
:100FC00010B500F0B9FE05490968054AC1F30211E0
:100FD000515C01F01F01C84010BD000020440258C0
:100FE000A03A0008494930B5484C0B1D0A68143432
:100FF00009681D68246802F00303C5F30012C1F3F9
:101000000531C4F3CC04002914FB02F200EE102ACF
:10101000F8EE400A75D03F4A9FED3D1AB7EE000A40
:101020006BB1DFED3D1A012B01D0022B64D002EE33
:10103000101A1168F8EE422A81EEA22A21E0334C00
:10104000283C23689B0612D5344B246801EE901A85
:101050001168C4F3C104F8EE612AE34001EE903A4E
:10106000C1F30801F8EE611A81EEA22A0BE001EE4D
:10107000901ADFED2B2A00BFF8EE611A116882EE9C
:10108000A12AC1F3080101EE901A1168F8EE611A65
:1010900040EE811A71EE800A62EE200AC1F3462109
:1010A00001EE101AB8EE411A31EE001AC0EE811AA4
:1010B000BCEEE11A80ED001A1168C1F3064101EEA1
:1010C000101AB8EE411A31EE001AC0EE811ABCEEC9
:1010D000E11A80ED011A1168C1F3066101EE101AE0
:1010E000B8EE411A31EE000A80EE801ABCEEC10A59
:1010F00080ED020A30BD04E001EE901ADFED092A0E
:10110000BAE70021016041608160F3E7284402589A
:1011100000000039384402580024744A0090D0037B
:101120000024744C20BCBE4B494930B5484C0B1DC3
:101130000A681C3409681D68246802F00303C5F3BB
:101140000022C1F30551C4F3CC04002914FB02F2C0
:1011500000EE102AF8EE400A75D03F4A9FED3D1A86
:10116000B7EE000A6BB1DFED3D1A012B01D0022B67
:1011700064D002EE101A1168F8EE422A81EEA22A1B
:1011800021E0334C283C23689B0612D5344B24685D
:1011900001EE901A1168C4F3C104F8EE612AE3402D
:1011A00001EE903AC1F30801F8EE611A81EEA22A2D
:1011B0000BE001EE901ADFED2B2A00BFF8EE611A6A
:1011C000116882EEA12AC1F3080101EE901A11689C
:1011D000F8EE611A40EE811A71EE800A62EE200A82
:1011E000C1F3462101EE101AB8EE411A31EE001A91
:1011F000C0EE811ABCEEE11A80ED001A1168C1F34D
:10120000064101EE101AB8EE411A31EE001AC0EE96
:10121000811ABCEEE11A80ED011A1168C1F3066172
:1012200001EE101AB8EE411A31EE000A80EE801A73
:10123000BCEEC10A80ED020A30BD04E001EE901A56
:10124000DFED092ABAE70021016041608160F3E720
:101250002844025800000039404402580024744ACF
:101260000090D0030024744C20BCBE4B2DE9FC5FE1
:10127000044650F8241B002500902E460801FE4F1E
:10128000DFF8F8831DD5A06E50B1B0F5801F0CD0EB
:10129000B0F5001F0ED0B0F5401F1DD001250FE0A6
:1012A000386840F40030386016E00221201D01F05B
:1012B00081FC03E00098022101F00CFD05000BD039
:1012C0002E462088C00523D5606D05281ED2DFE894
:1012D00000F00C11161B1B00A26ED8F8001021F4B0
:1012E00040111143C8F80010EBE7386840F40030B3
:1012F000386009E00021201D01F05CFC03E000984B
:10130000002101F0E7FC05467DB100E001252E46F5
:10131000208880052BD5A06DC02826D00EDCA8B172
:10132000402818D080280FD11AE0626DD8F800103C
:1013300021F007011143C8F80010E9E7B0F5807FFC
:1013400013D0B0F5A07F10D001250FE0386840F42D
:101350000030386009E00021201D01F02BFC03E083
:101360000098002101F0B6FC054685B12E46208884
:1013700040052ED5E06DB0F5C06F28D010DCB8B1B7
:10138000B0F5007F19D0B0F5806F0FD11AE0A26DD3
:10139000D8F8001021F4E0711143C8F80010E6E716
:1013A000B0F5006F13D0B0F5206F10D001250FE01D
:1013B000386840F40030386009E00021201D01F059
:1013C000F9FB03E00098002101F084FC05468DB193
:1013D0002E462068DFF8A4B28001ABF1040B1ED5C5
:1013E000A06CD0B110280ED0202811D0302814D0F5
:1013F000012513E0E26DD8F8001021F4606111437B
:10140000C8F80010E5E7386840F40030386004E0C0
:101410000221201D01F0CEFB05466DB12E4620882D
:10142000C0042BD5206EB0F5005F20D00DDCA0B13C
:10143000B0F5805F0FD115E0A26CDBF8001021F051
:1014400030011143CBF80010E9E7B0F5405F13D04D
:10145000B0F5804F10D001250FE0386840F400301F
:10146000386009E00021201D01F0A4FB03E0009892
:10147000002101F02FFC054685B12E46208880040E
:1014800029D5606EB0F5403F23D010DC08B3B0F52D
:10149000803F14D0B0F5003F0FD115E0226ED8F890
:1014A000001021F4E0411143C8F80010E6E7B0F560
:1014B000802F0ED0B0F5A02F0BD001250AE001211E
:1014C000201D01F077FB03E00098012101F002FCF0
:1014D00005466DB12E462088DFF8A0A140040AF130
:1014E000080A25D5D4F8AC0030F0704109D01DE0D1
:1014F000626ED8F8001021F4E0211143C8F8001002
:10150000E9E70017072811D2DFE800F00E04090E02
:101510000E0E0E000121201D01F04CFB03E000988F
:10152000012101F0D7FB05467DB100E001252E46E3
:10153000208800041FD5606FD8B1B0F1805F0ED055
:10154000B0F1005F10D0012514E0D4F8AC20DAF837
:10155000001021F0E0411143CAF80010E8E73868B4
:1015600040F40030386004E00121201D01F022FB2E
:1015700005466DB12E462068C0011ED5606CD0B105
:1015800001280ED0022811D0032814D0012513E021
:10159000626FD8F8001021F040511143C8F80010D4
:1015A000E9E7386840F40030386004E00221201D8B
:1015B00001F000FB054665B12E46206840024FD57C
:1015C0002F48016841F480710160FFF721F88146DE
:1015D0000EE0626CDBF8001021F003011143CBF840
:1015E0000010EAE7FFF714F8A0EB0900642835D8EB
:1015F00023480068C005F5D58DBBDFF88090B4F8AE
:10160000B01009F12009D9F8000001F4407100F48C
:101610004070884211D0D9F80010D9F8002021F488
:10162000407142F48032C9F80020D9F8002022F439
:101630008032C9F80020C9F80010D4F8B000B0F525
:10164000807F2AD1FEF7E4FF019022E0FEF7E0FF61
:101650000199411A41F2883081421AD903252E4658
:101660002078DFF81890C00709F1040945D0D4F8B4
:10167000800018283FD005E02C44025850440258FE
:101680000048025826DC80B3082829D0102825D12C
:101690002CE0D9F800008007D8D5D4F8B010C1F3F9
:1016A00001200328FE480DD0016821F47C5101601F
:1016B000B4F8B020D9F80010C2F30B021143C9F8F6
:1016C0000010CDE7F74A036802EA111223F47C51B7
:1016D0001143ECE720280ED028280CD001250BE080
:1016E0000121201D01F066FA04E004E000980121C8
:1016F00001F0F0FA05465DB12E46207880071FD52F
:10170000E06F06281AD2DFE800F0170D121717173E
:10171000D4F88020D9F8001021F038011143C9F81D
:101720000010EAE70121201D01F044FA03E00098CF
:10173000012101F0CFFA054675B100E001252E46E2
:10174000207840071FD5D4F89800062819D2DFE882
:1017500000F0160C11161616E26FD9F8001021F0E1
:1017600007011143C9F80010EAE70121201D01F02B
:1017700021FA03E00098012101F0ACFA05469DB181
:1017800000E001252E46207880062BD5D4F8940061
:10179000B0F1405F24D011DC10B3B0F1805F15D000
:1017A000B0F1005F10D116E0D4F89820DAF80010FC
:1017B00021F007011143CAF80010E4E7B0F1804FAF
:1017C0000ED0B0F1A04F0BD001250AE00021201D62
:1017D00001F0F0F903E00098022101F07BFA0546E0
:1017E0008DB12E46207840062BD5D4F8A000B0F558
:1017F000406F24D011DC10B3B0F5806F15D0B0F578
:10180000006F10D116E0D4F89420D9F8001021F020
:10181000E0411143C9F80010E4E7B0F5805F0ED055
:10182000B0F5A05F0BD001250AE00021201D01F0DA
:10183000C1F903E00098022101F04CFA05468DB190
:101840002E46207800062BD5D4F8A400B0F5C04F62
:1018500024D011DC10B3B0F5005F15D0B0F5804F87
:1018600010D116E0D4F8A020DAF8001021F4E051ED
:101870001143CAF80010E4E7B0F5004F0ED0B0F500
:10188000204F0BD001250AE00021201D01F092F924
:1018900003E00098022101F01DFA05464DB12E46E5
:1018A000207800071ED5D4F88800B0F5805F0AD0F4
:1018B0000FE0D4F8A420DAF8001021F460411143BD
:1018C000CAF80010ECE70098022101F003FA00B119
:1018D0000126D4F88820D9F8001021F44051114392
:1018E000C9F800102078C00613D5D4F89C00B0F5D4
:1018F000807F05D10098022101F0ECF900B10126AA
:10190000D4F89C20DAF8001021F440711143CAF891
:1019100000102068000316D5D4F8A80038B1B0F53F
:10192000803F09D0B0F5003F0BD001250AE000212F
:10193000201D01F03FF903E00098022101F0CAF9EF
:10194000054685B12E462068400322D5D4F88C0088
:10195000B0F5801F11D0B0F5001F13D0B0F5401FB7
:1019600015D0012514E0D4F8A820DAF8001021F4ED
:1019700040311143CAF80010E5E7386840F4003000
:10198000386004E00098012101F0A4F9054655B142
:101990002E462068C0031CD5E06C70B1B0F5803FC6
:1019A00010D0012514E0D4F88C20D9F8001021F4CF
:1019B00040111143C9F80010EBE7386840F40030DB
:1019C000386004E00221201D01F0F4F80546D5B18D
:1019D0002E462068800005D50098022101F07AF992
:1019E00000B10126206880031CD5D4F88400B8B16A
:1019F000B0F5807F10D0B0F5007F11D0B0F5407FFA
:101A00000ED001250DE0E26CDBF8001021F48031EE
:101A10001143CBF80010DCE7386840F40030386040
:101A2000E5B32E462068C00207D5A26FD8F8001093
:101A300021F000411143C8F800102068800207D54A
:101A4000E26ED8F8001021F080711143C8F8001040
:101A50002088000507D5226FDAF8001021F0006118
:101A60001143CAF800102068400009D50C480168ED
:101A700021F4004101600168D4F8B42011430160F1
:101A80002068002807DA226DDBF8001021F04051B1
:101A90001143CBF800102068000205E012E00000BE
:101AA00010440258CFFFFF0008D5D4F89020D9F891
:101AB000001021F440011143C9F8001066B1012063
:101AC000BDE8FC9FD4F88420D9F8001021F44071BF
:101AD0001143C9F80010A5E70020F1E72DE9F05FF8
:101AE00004000F467ED0DFF83882D8F8000000F0FE
:101AF0000F00B8420CD2D8F8001021F00F01394382
:101B0000C8F80010D8F8000000F00F00B84269D102
:101B10002078844D40070AD52069296801F07001BA
:101B2000884204D9296821F0700101432960207896
:101B30007C4E361D00070AD56069316801F07001DE
:101B4000884204D9316821F0700101433160207866
:101B5000C0060AD5A069316801F4E061884204D961
:101B6000316821F4E061014331602078DFF8B4B1DD
:101B700080060BF1080B0CD5E1695846DBF8002014
:101B800002F07002914204D9026822F070020A4306
:101B90000260207880070AD5E068296801F00F010B
:101BA000884204D9296821F00F0101432960207877
:101BB000C0073ED05B49A2682868183920F47060DD
:101BC000104328606068022818D0032819D00968DB
:101BD000012819D0490700294ADADFF848A1AAF1FB
:101BE000080A00E044E0DAF8002022F0070202438D
:101BF000CAF80020FEF70CFD814612E0096889034F
:101C0000E9E709688901E6E7C905E4E7FEF700FDB1
:101C1000A0EB090141F28830814202D90320BDE8DE
:101C2000F09F6168DAF8000000F03800B0EBC10FF7
:101C3000ECD1207880070AD5E068296801F00F010F
:101C4000884204D2296821F00F0101432960D8F8A5
:101C50000010404601F00F01B9420BD9016821F094
:101C60000F0139430160006800F00F00B84201D055
:101C70000120D4E7207840070AD52069296801F0BF
:101C80007001884204D2296821F070010143296063
:101C9000207800070AD56069316801F07001884238
:101CA00004D2316821F07001014331602078C00610
:101CB0000AD5A069316801F4E061884204D2316834
:101CC00021F4E06101433160207880060CD5E169A0
:101CD0005846DBF8002002F07002914204D20268FC
:101CE00022F070020A43026000F06CF80E492A6884
:101CF0002B68C2F3032203F00F038A5CC95C02F075
:101D00001F0201F01F01D040084A20FA01F11160C2
:101D10000749086007480068BDE8F05FFEF7B4BCFB
:101D20000020005218440258A03A00081400002075
:101D3000100000200800002030B500F043F80B4AE6
:101D40000B490C4B15681468C5F3032204F00F040B
:101D50008A5C095D02F01F0201F01F01D040064AB3
:101D600020FA01F119601060084630BD184402588D
:101D7000A03A0008140000201000002000B5FFF772
:101D8000DBFF05490968054AC1F30211515C01F006
:101D90001F01C84000BD00001C440258A03A0008C2
:101DA00000B5FFF7C9FF05490968054AC1F30221DB
:101DB000515C01F01F01C84000BD00001C440258E6
:101DC000A03A0008454970B545480968434B103BA7
:101DD00011F0380208D00111082A03D0102A0BD0C4
:101DE000182A0BD0084670BD19688906FBD51968FA
:101DF000C1F3C101C84070BD3A4870BD3749374D85
:101E000018310C1D24350A68096826682D6802F00F
:101E1000030406F00102C1F30511C5F3CC0515FB5F
:101E200002F200EE102AB8EE400AE9B32F4ADFEDC5
:101E30002E0AB7EE001A6CB1DFED2D1A012C01D07D
:101E4000022C43D002EE101A1068F8EE422A81EEFE
:101E5000A22A1EE01C68A40611D51B6801EE901A88
:101E60001168C3F3C103F8EE612AD84001EE900A6D
:101E7000C1F30800F8EE611A81EEA22A0BE001EE30
:101E8000901ADFED1C2A00BFF8EE611A106882EE8E
:101E9000A12AC0F3080001EE900AF8EE611A40EEA4
:101EA000201A31EE810A00E015E022EE000A1068E7
:101EB000C0F34620401C00EE900AF8EE600A80EE67
:101EC000201ABCEEC10A10EE100A70BD01EE901A85
:101ED000DFED092AD8E7002070BD00001044025849
:101EE0000090D00340787D01000000393044025852
:101EF0000024744A0024744C20BCBE4B2DE9F047EA
:101F000004007DD0FF4F2078FE4D1837DFF8F483B2
:101F1000103DC00766D0D8F80000396800F03800DE
:101F2000102822D0182803D101F0030002281CD069
:101F30006068B0F5803F1FD010B3B0F5A02F2BD054
:101F4000B0F5A81F28682FD020F4803028602868BA
:101F500020F480202860286820F4801028606068C1
:101F600098B3FEF755FB06462BE02868800339D569
:101F700060680028C5D035E0286840F48030EDE77F
:101F8000286820F480302860286820F480102860B9
:101F9000286820F48020E1E7286840F48020286049
:101FA000286820F4801005E040F48020286028682C
:101FB00040F480102860DFE7FEF72AFB801B6428CE
:101FC00077D828688003F7D50CE0FFE7FEF720FB01
:101FD000064604E0FEF71CFB801B6428F0D8286846
:101FE0008003F7D42078800744D5D8F80000DFF8C4
:101FF0001493396810F03800A9F10C0910D000E0F2
:10200000CEE0182801D188070AD0E06808B3296813
:1020100021F0190101432960FEF7FAFA064614E09F
:102020002868400702D5E0680028A3D0217CD9F8B1
:10203000002022F0FE4242EA0161C9F8001019E0D6
:10204000FEF7E6FA801B0228BAD828684007F7D5C1
:10205000ECE7286820F001002860FEF7D9FA064670
:1020600005E000BFFEF7D4FA801B0228A8D8286834
:102070004007F7D42078C00646D5D8F80000DFF82E
:102080008492396800F03800A9F10409082811D0B9
:10209000182803D101F0030001280BD0E0690028C3
:1020A000286822D040F080002860FEF7B1FA06468A
:1020B00017E0E1E02868C00502D5E06980286FD10B
:1020C00094F82010D9F8002022F07C5242EA0161F5
:1020D000C9F8001018E000BFFEF79AFA801B02282A
:1020E000B2D82868C005F7D5EAE720F0800028605C
:1020F000FEF78EFA064604E0FEF78AFA801B0228F5
:10210000A2D82868C005F7D42078000729D57D48D3
:102110006169643000298146016811D041F00101F4
:102120000160FEF775FA064605E000BFFEF770FA9B
:10213000801B022888D8D9F800008007F6D510E067
:1021400021F001010160FEF763FA064605E000BFD9
:10215000FEF75EFA801B022888D8D9F800008007B5
:10216000F6D42078800625D5A0690028286810D0EC
:1021700040F480502860FEF74BFA064605E000BFA9
:10218000FEF746FA801B022876D828688004F7D527
:1021900010E020F480502860FEF73AFA064606E088
:1021A0003BE100BFFEF734FA801B022864D82868A0
:1021B0008004F7D4207840076DD5DFF84C91D9F82A
:1021C000001041F48071C9F80010FEF721FA0646AC
:1021D00005E000BFFEF71CFA801B64284CD8D9F834
:1021E0000000C005F6D5474EA0686036012818D01B
:1021F000D8B1052825D0852830682AD020F00100E4
:102200003060306820F004003060306820F08000DA
:102210003060A06841F2883A78B3FEF7F9F9814658
:1022200026E0306840F00100F2E7306820F001005D
:102230003060306820F080003060306820F00400AA
:10224000E6E7306840F004003060306820F080003D
:1022500005E040F004003060306840F080003060FD
:10226000DFE700BFFEF7D4F9A0EB0901514503D821
:1022700030688007F6D50EE088E0FFE7FEF7C8F982
:10228000814605E0FEF7C4F9A0EB090151457DD870
:1022900030688007F6D4606AC0B34146DFF86480D6
:1022A00008F120080968C1F3C20103296FD0022890
:1022B000286820F08070286003D0FEF7A9F9044652
:1022C00080E0FEF7A5F9064605E000BFFEF7A0F99D
:1022D000801B022873D828688001F7D4E26A40F294
:1022E000F331386854F8283F884340EA0210184315
:1022F0003860217B4FF4FE0C22894FF0FE47208A84
:10230000267D04E0104402580048025887E0490244
:10231000521EA1F5007189B2401EC2F3080211439A
:10232000761E0CEA004001433E4807EA066211436C
:102330003C4AC8F800100832016821F00101016030
:1023400011684FF6F876236AB14341EAC301116080
:102350000168A26921F00C01114301600168E26982
:1023600021F0020111430160016841F480310160F4
:10237000016841F400310160016841F4802101608D
:10238000016841F001010160286801E017E01DE0EB
:1023900040F080702860FEF73BF9044605E000BF7E
:1023A000FEF736F9001B022809D828688001F7D506
:1023B00035E000BFFEF72CF9001B022802D90320EC
:1023C000BDE8F08728688001F4D428E03968012846
:1023D000D8F8000021D0A26A01F0030393421CD177
:1023E000E26AC1F305118A4217D1216BC0F30802DA
:1023F000491E8A4211D1616BC0F34622491E9142A7
:102400000BD1A16BC0F30642491E914205D1E16B8D
:10241000C0F30660491E814201D00120D0E70020B0
:10242000CEE700002C440258401EB0F1807F10B56A
:1024300001D3012010BD4FF0E02460610F2160172F
:1024400001F0CCF80020A0610721216110BD30B55A
:1024500090F88010012918D0012280F880202421D2
:10246000C0F884100022202450F8641B0B680D680B
:1024700023F0005325F001050D60026050F8641C44
:102480000B6004620277104630BD022030BD70B58B
:10249000044690F8800001281DD0012284F8802095
:1024A0002420C4F8840020680568026822F0010234
:1024B00002602068826822F060620A4382602046DF
:1024C00000F060FD2268202100201560C4F884100F
:1024D00084F8800070BD022070BD70B5044690F88D
:1024E000800001281DD0012284F880202420C4F817
:1024F000840020680568026822F0010202602068FA
:10250000826822F060420A438260204600F03AFD71
:102510002268202100201560C4F8841084F880000F
:1025200070BD022070BD10B5040003D0D4F8840043
:1025300010B107E0012010BD002084F88000204683
:1025400000F026F82420C4F884002068016821F0F7
:1025500001010160204600F0CBFD0128EBD0A06A0C
:1025600010B1204600F030FD2068416821F4904110
:1025700041602068816821F02A018160206801683B
:1025800041F0010101602046BDE8104000F080BD2F
:1025900010B586B0044614216846FDF7DDFE1A49E1
:1025A000206888422ED11948016841F0100101606D
:1025B000006800F01000059014481038016841F0E0
:1025C00001010160016801F001010591016841F01C
:1025D0000101016000680221012200F00100059064
:1025E000032307244FF400708DE81F00084C694650
:1025F0002046FDF7EFFE4FF48060694600902046CC
:10260000FDF7E8FE06B010BD00100140504502582D
:10261000000002582DE9F8430446D0F884001F4614
:1026200016460D46202852D1DDB1D6B194F880006F
:1026300001284CD0012084F8800021224FF00008AE
:10264000C4F88C80C4F884201834FDF7E1FF81467B
:1026500054F8100CA687E687183CB0F5805F03D0CD
:1026600004E00120BDE8F883206920B12E46002552
:1026700084F8808010E00026FAE78021204600F0F0
:1026800023FFB8B9C6B116F8010B21688862B4F807
:102690005600401EA4F85600B4F856004B464FF0C2
:1026A000000200970028E8D14FF04001204600F0DA
:1026B0000BFF38B10320D5E735F8020B2168C0F3D2
:1026C0000800E3E72020C4F884000020CAE70220C5
:1026D000C8E7FEE710B586B014216846FDF73CFE5A
:1026E0000D48016841F004010160006800220B4CB4
:1026F000022100F0040005902046FDF783FF002131
:102700000220009001222046CDE901210391694673
:10271000FDF760FE06B010BD4045025800080258A3
:1027200070B586B018216846FDF716FE1548FEF70D
:1027300069FA14480021144E082202231725066066
:1027400001244362D306C0E90121C0E90315C0E9B1
:102750000541C0E90741C0E90A310163C0E90D1232
:10276000C1630164FEF766FA4FF0011041F288324E
:1027700069460094CDE902400248FDF7E5FF06B046
:1027800070BD0000AC00002000500052FEE7FEE7E4
:10279000F0B503004FF0000004460BD0022B09D81F
:1027A00041B100220A604A60022B8A60CA600A6155
:1027B00002D007E00120F0BD294A1268D20734D0C8
:1027C0004FF40074274D002205EB8203D3F8043444
:1027D000DE0707D003F0020604F00207BE4201D173
:1027E000561C0E60DE0607D503F0200604F0200715
:1027F000BE4201D1561C4E60DE0507D503F40076BB
:1028000004F40077BE4201D1561C8E60DE0311D560
:1028100003F4802604F48027BE420BD19E0302F10C
:10282000010604D446F4803603E00F4CCAE746F0B4
:102830008076CE60DE010FD503F0806604F08067FD
:10284000BE4209D19B0102F1010302D443F480335B
:1028500001E043F080730B61521C022AB4D3F0BD37
:1028600000B4005200B00052220204042DE9F04FDF
:1028700002684FF0000A136823F040531360826827
:1028800032B902684C68136823F080032343136055
:102890000A68022A29D0032A32D0026802F584731A
:1028A000144602F5887902F5807204F5907400BF31
:1028B000D1E9125635431560CD6A5DB18D6A256048
:1028C000166801F12C0526F47C16B0CD3C43354347
:1028D0002C4314601C684D6C24F01F042C431C60B6
:1028E0008B6BE3B10B68B3B119E0026802F5C473F6
:1028F000144602F5C87902F5C07204F5D074D7E722
:10290000036803F5A0721C4603F5A87903F5A473C8
:1029100004F5B074CCE70468CB6B5B1E2364CB6812
:10292000C3B3CC694FF0805EACB38D6BB5F1000BD7
:10293000D1E9045643EA060311D0D1E908C7D1F81A
:102940004080166825432B433B4C3B4343EA0C0332
:1029500043EA0B03264043EA0803334316E0D1E978
:10296000087C166825432B4343F63F7843EA0C0363
:102970003B4326EA080633431360C36A734506D116
:102980004B69082B03D1136843F0006313608B6815
:102990004A4644E026E0FFE78C6B64B1D1E9045776
:1029A0000E6C106825433B43244F2B433840334380
:1029B0000343136012E01668D1E9044526F03F0690
:1029C00034432B4323431360C06A704506D14869E2
:1029D000082803D1106840F0006010608968C9F8C9
:1029E000001025E0CB69FBB18C6B84B1D1E9087C88
:1029F0000E6C1568274343EA0C03DFF83CC03B43E9
:102A00000CF13F0C334305EA0C052B4307E0166835
:102A1000D1E9084526F47C5634432B432343136005
:102A200000688969816403E008224FF0010A826529
:102A30005046BDE8F08F0000C0C0FFF0C0FFFFF0BF
:102A400010B5FFF76DFE00F05DF8014606488142C3
:102A500004D106A000F0B2FD002010BD09A000F0D6
:102A6000ADFD4FF0FF3010BD1740EF00573235512C
:102A70003634204F4B2C666C6173682049443A25EC
:102A8000580D0A00573235513634204552524F52B4
:102A90002121212121202049443A25580D0A0000F6
:102AA000EB2010B596B00024012100944FF4407241
:102AB000CDE90140CDE903140DF11C0C05944B0345
:102AC00010048CE81C000B940621CDE90D400C4845
:102AD00041F28832CDE91041694612941394FEF711
:102AE0003FF810B1601F16B010BD054814A914942A
:102AF0001594FEF725F90028F5D06FF00500F2E7F0
:102B0000AC00002030B595B00020012400900323D4
:102B100061030190CDE903400590CA02CDE90701A8
:102B20000E9241F288340B909F25CDE90F30119021
:102B300022461290694613900A480295FEF710F853
:102B4000084814A92246FEF7BBF99DF850209DF8CD
:102B500051009DF8521015B0120442EA00200843BB
:102B600030BD0000AC0000202DE9F041984616462B
:102B70000F460446069D08E0681C06D0FDF748FD98
:102B8000A0EB0800A8420AD84DB12068006A38407E
:102B900000D00120B042EFD10020BDE8F0814FF419
:102BA00000706065A06D40F00100A0650120F4E7B1
:102BB000704700002DE9F047454D044689464FF027
:102BC000000A2868C04380070AD0414E283E30687A
:102BD00020F080603060FDF71BFD0746B04608E03E
:102BE0000120BDE8F08700BFFDF712FDC01B0228E1
:102BF00067D8D8F800000001F6D4206829684FF49F
:102C0000FE0721F47C313E0241EA00302860207A40
:102C1000A389B4F804C040022D4D2D495B1E227CCF
:102C2000ACF1010C1035091DA0F5007080B2521EE8
:102C3000CCF3080C07EA034340EA0C00184306EA09
:102C40000262104328600868626920F0C0001043E7
:102C500008600A68A06922F0200202430A60281D69
:102C60000A6822F010020A6002684FF6F873E469FD
:102C70009A4342EAC40202600868B9F1000F40F0CA
:102C800010020A6011D00868B9F1010F11D040F4A8
:102C900000100860D8F80000444640F08060C8F892
:102CA0000000FDF7B5FC05460DE0086840F4002083
:102CB000EFE740F48010ECE7FDF7AAFC401B022888
:102CC00001D903208DE720680001F5D5504688E73B
:102CD000284402582DE9F047454D044689464FF0F7
:102CE000000A2868C04380070AD0414E283E306859
:102CF00020F080503060FDF78BFC0746B04608E0BE
:102D00000120BDE8F08700BFFDF782FCC01B022850
:102D100067D8D8F800008000F6D4208829684FF4DE
:102D2000FE0721F07C713E0241EA00502860207AC3
:102D3000A389B4F804C040022D4D2D495B1E227CAE
:102D4000ACF1010C1835091DA0F5007080B2521EBF
:102D5000CCF3080C07EA034340EA0C00184306EAE8
:102D60000262104328600868626920F440601043E2
:102D700008600A68A06922F4007202430A60281DF4
:102D80000A6822F480720A6002684FF6F873E469F8
:102D90009A4342EAC40202600868B9F1000F40F4A5
:102DA00080720A6011D00868B9F1010F11D040F0AB
:102DB00080700860D8F80000444640F08050C8F8A1
:102DC0000000FDF725FC05460DE0086840F4800092
:102DD000EFE740F40000ECE7FDF71AFC401B022887
:102DE00001D903208DE720688000F5D5504688E79B
:102DF000284402587047FDF711BC0000F0B5CBB075
:102E00004C212EA8FDF7A8FA202141A8FDF7A4FA2D
:102E1000B8216846FDF7A0FA0220FEF7A7F825487A
:102E20000024016841F440410160016801F440411F
:102E3000499101688904FCD51F4902200A680123D1
:102E4000C5030526702722F00302921C0A6038AAE7
:102E50003790082182E8C1003DAA3B903C9082E86F
:102E60001300CDE92E352EA84094FFF747F808B19E
:102E700072B6FEE741AD40203F21032285E81600EF
:102E800003014890CDE944400721CDE9460341A81C
:102E9000FEF724FE08B172B6FEE74FF00070129400
:102EA00000906846FEF7E2F9002801D072B6FEE70E
:102EB0004BB0F0BD18480258284402582948F0B5D4
:102EC000294A016841F470010160106800F00F00A8
:102ED000032804D2106820F00F00C01C10602349A2
:102EE0000020224C10340B68214D43F001030B608D
:102EF00020600B682B400B60136803F00F03032B5B
:102F000004D9136823F00F03DB1C1360174C194A14
:102F10001834194B261D371D2060144C174D2834CA
:102F20003060261D3860371D23603B1D35601C1D39
:102F30003A60251D2E1D1860331D22602860326006
:102F400018600A6843F2D2040D4D084B22F4802227
:102F5000044F60330A606E03803F18602C603E604F
:102F6000F0BD000088ED00E000200052004402584F
:102F70007FEDF6EA80020101000202020000FF017B
:102F80000040005230B5416EB9B101680D4B03F1FC
:102F900008048A688968C2F34262490F5D5C615C1B
:102FA0002D01B5FBF1F1A0F86A10995CA25C090152
:102FB000B1FBF2F1A0F8681030BD0121A0F86A1051
:102FC000F8E70000903A000890F82810C90706D0EA
:102FD0000168C36A4A6822F400321A434A6090F8D2
:102FE0002810890706D50168036B4A6822F48032ED
:102FF0001A434A6090F82810490706D50168436BC8
:103000004A6822F480221A434A6090F8281009077F
:1030100006D50168836B4A6822F400421A434A606D
:1030200090F82810C90606D50168C36B8A6822F497
:1030300080521A438A6090F82810890606D50168E4
:10304000036C8A6822F400521A438A6090F82810B0
:10305000490611D50168436C4A6822F480121A436C
:103060004A60416CB1F5801F06D10168836C4A68E3
:1030700022F4C0021A434A6090F82810090606D5C7
:103080000168C26C486820F4002010434860704713
:10309000F8B500260446C0F88C60FDF7B9FA05467D
:1030A00020686FF07E470068000708D500222B4695
:1030B0004FF400112046009700F006FA60B920682E
:1030C000006840070AD500222B464FF480012046B5
:1030D000009700F0F9F908B10320F8BD2020C4F8EA
:1030E0008400C4F88800E666002084F88060F8BD9B
:1030F0002DE9F04304468068E14E87B0E14B21683A
:10310000D4E90427D4F81CC010430A68002547EA14
:103110000C073843324002430A602068E268416885
:1031200021F44051114341602268A1699A4201D0C3
:10313000206A01439768DFF850C3D44ED44807EAA9
:103140000C070F4397602168676ACA6A22F00F0272
:103150003A43CA622268B2420ED1006800F03800D9
:1031600018286FD07ADCB8B308286CD010286BD13F
:103170008BE0282868D18EE0C6498A4209D10068D0
:1031800000F0070006285FD2DFE800F0507D7F8165
:103190008385C1498A4209D1006800F007000628EA
:1031A0007BD2DFE800F0437072747678BB498A42C4
:1031B00009D1006800F0070006286ED2DFE800F0B1
:1031C00036636567696BB6498A420BD1006800F0C7
:1031D0000700062861D200E043E0DFE800F0275452
:1031E00056585A5CAF498A4206D1006800F0380050
:1031F00018284CD0B7DD31E0AB498A4209D10068CC
:1032000000F00700062848D2DFE800F0103D3F41FB
:103210004345A6498A420BD1006800F00700062802
:103220003BD2DFE800F0033032343638002035E09E
:103230009F498A4209D1006800F03800182826D03A
:1032400091DD0BE023E01EE027E09A498A420AD193
:10325000006800F03800182819D084DD202888D1B3
:103260001CE001201AE09A4217D18948001D00682D
:1032700000F00700062810D2DFE800F00305070978
:103280000B0D02200AE0042008E0082006E01020D0
:1032900004E0202002E0402000E080208649DFF8A2
:1032A0001C829A42864A4FF400434FEA21174FF09E
:1032B00000064CD110281AD006DC022809D00428B8
:1032C0000BD008287DD10DE020283CD0402878D1B3
:1032D0003BE0FDF775FE014610E06846FDF782FE13
:1032E00001990BE003A8FDF71FFF049906E01068A1
:1032F000800604D51068C0F3C100C140B1B3606A54
:10330000676838F8102007EB4703B1FBF2F08342FF
:1033100057D8B0EB073F54D8002308461946FCF7AE
:10332000E3FF030E7A08000243EA012180183A46BF
:1033300071410023FCF7D8FF624AA0F54071914229
:103340003FD821684CE03946D9E71946D7E7D4F889
:103350001CC04FF6EF799C4552D108281AD006DCE4
:1033600060B101280DD004282BD10EE039E01028DF
:1033700015D0202840D040287CD13FE0FEF7FEFC4D
:1033800001E0FEF70DFD014610E06846FDF72AFE5C
:1033900001990BE003A8FDF7C7FE049906E0106849
:1033A000800604D51068C0F3C100C140C9B1636A8A
:1033B000606838F81330B1FBF3F1490001EB5001BC
:1033C00000E057E0B1FBF0F080B2A0F110014945F8
:1033D00050D84FF6F0732168C0F3420218401043F2
:1033E000C8600120A4F86A00A4F86800284626678F
:1033F000666707B0BDE8F0833946D8E71946D6E7D7
:10340000082819D005DC58B101280CD0042831D186
:103410000DE0102815D020282ED040282AD12DE0EC
:10342000FEF7ACFC01E0FEF7BBFC014610E068468D
:10343000FDF7D8FD01990BE003A8FDF775FE04998F
:1034400006E01068800605D51068C0F3C100C140D1
:103450000029C6D0636A606838F81330B1FBF3F115
:1034600001EB5001B1FBF0F080B2A0F11001494531
:103470007FF667AF0125B4E73946EBE71946E9E780
:10348000F369FFCF000C0058FFF4FF11001001405A
:10349000544402580044004000480040004C0040A2
:1034A000005000400014014000780040007C0040C3
:1034B00000180140001C01400090D003783A000839
:1034C00000440258FFFC0F002DE9F0479A461746CA
:1034D0000E460446089D4FF000094FF0200839E0E1
:1034E000681C37D0FDF794F8A0EB0A00A84222D858
:1034F0000DB32068016849072CD5C069C043000599
:1035000028D423684FF40061196221680B6823F402
:10351000D0730B6021688B6823F001038B60C4F8C3
:103520008480C4F88880C4F88C8000BF032084F8AD
:103530008090BDE8F08721680B6823F4D0730B609E
:1035400021688B6823F001038B60C4F88480C4F881
:103550008880EBE72068C06936EA000004D00020CC
:10356000B842BDD00020E4E70120F9E7114800216E
:1035700010B50F4C0C224FF4E1330460C0E9013167
:10358000C160C0E904128161C1610162416281626E
:10359000FEF7C9FF07480021FEF79FFF05480021FD
:1035A000FEF775FFBDE810400248FEF750BF00006F
:1035B000001001401C000020FEE700000FB4054B86
:1035C00010B503A9044A029800F028F810BC5DF871
:1035D00014FB0000DD38000818000020090700284F
:1035E0004FEA116104DB00F1E02080F8001470471D
:1035F00000F00F0000F1E02080F8141D704702E099
:1036000008C8121F08C1002AFAD17047704700206D
:1036100001E001C1121F002AFBD170472DE9FF4FC5
:103620008DB09B460F460446002606E025280BD0A9
:103630005A460F999047641C761C20780028F5D1D3
:1036400011B03046BDE8F08F0025A8460122984908
:1036500000E0054314F8013F203B02FA03F0084262
:10366000F7D120782E2817D114F8010F45F0040562
:103670002A280ED06FF02F022078A0F130010929FE
:103680000AD808EB880102EB410100EB0108641C39
:10369000F2E757F8048B641C20786C280DD004DC0A
:1036A0004C2812D06A2811D104E074280DD07A2851
:1036B0000CD10AE045F4001507E0617845F4801567
:1036C000814202D1641C05F58015641C20786928AC
:1036D00044D008DC0028B3D0582867D063280FD026
:1036E000642808D13AE0702865D0732812D0752874
:1036F0005AD078285AD05A460F999047761CD5E070
:1037000017F8040B8DF8000000208DF80100E94641
:10371000012003E057F8049B4FF0FF3069074FF09A
:10372000000501D40AE06D1C45450DDA8542FADB3F
:1037300019F805100029F6D106E06D1C8542FCDB66
:1037400019F805100029F8D12E4404E019F8010BEE
:103750005A460F9990476D1EF8D2A7E00A20002123
:10376000CDE90801C5F3025002280CD001CFC117E2
:10377000021E71F100020CDA0023D0EB030063EBB0
:1037800001012D2208E0FF1D27F00707F7E80201DD
:10379000EEE72A0504D52B228DF8282001223CE0F3
:1037A000EA073AD02022F7E70A2000E010200021A3
:1037B000CDE9080107E01020002145F00405CDE91E
:1037C00008014FF00808C5F30250022810D001CFBD
:1037D00000214FF0000A2A0720D52278702A0DD048
:1037E000DDE908C38CF0100C5CEA030C0CD015E08A
:1037F000FF1D27F00707F7E80201EAE740228DF8EE
:1038000028204FF0010A0CE050EA010306D03023D3
:103810008DF828308DF82920022292462278582AE5
:1038200004D024A20DF120090B9209E026A2F9E7A9
:10383000DDE90823FCF758FD0B9B9B5C09F8013D73
:1038400050EA0102F4D1ADEB09002030089068077E
:1038500001D44FF001080899884503DD0898A8EBCA
:10386000000000E000208046002506E00AA85A4635
:10387000405D0F9990476D1C761C5545F6DB04E0C2
:1038800030205A460F999047761CB8F10001A8F1F4
:103890000108F5DC05E019F8010B5A460F9990472D
:1038A000761C0899481E08900029F4DC641CC4E6C4
:1038B0000928010030313233343536373839616206
:1038C00063646566000000003031323334353637CA
:1038D00038394142434445460000000013B50448CE
:1038E000642301226946FEF795FE00981CBD000086
:1038F0001C0000204A4C0025DFF828812068800346
:1039000011D4BFF34F8FBFF36F8FC8F80050BFF3D0
:103910004F8FBFF36F8F206840F400302060BFF3FB
:103920004F8FBFF36F8FDFF8F890206809F17009AF
:10393000A9F1040A43F6FF76C00321D4C9F8005068
:10394000BFF34F8F374BDAF800001033C0F34E311E
:10395000C0F3C90206EA4117104600BF47EA807C5F
:10396000C3F800C0401EF9D2491EF3D2BFF34F8FF7
:10397000206840F480302060BFF34F8FBFF36F8F1B
:10398000FCF754FEFFF73AFAFEF7A4FEFFF7EEFD50
:1039900025A0FFF713FEFFF753F8FFF781F8BFF3F9
:1039A0004F8FBFF36F8F216821F400312160C8F879
:1039B0000050BFF34F8FBFF36F8FC9F80050BFF3B4
:1039C0004F8F206820F480302060BFF34F8FDAF8EB
:1039D0000000144B2433C0F34E31C0F3C90206EA91
:1039E0004114104644EA80771F60401EFAD2491EF7
:1039F000F5D2BFF34F8FBFF36F8F4FF0E020154C20
:103A00004FF0104105614561856148682060086894
:103A100080F3088810A0FFF7D1FD20688047FEE7FB
:103A200014ED00E050EF00E00D0A2A2A2A2A2A2A83
:103A30002A2A2A2A2A2A2A2A2A2A2A2A2A2A2A2AE6
:103A40002A2A2A2A2A2A2A2A2A2A2A2A2A2A2A2AD6
:103A50002A0D0A0000000020CCF8D7AAB5BD5732C5
:103A600035513634D4CBD0D0D3C3BBA7B3CCD0F2EE
:103A70003E3E3E0D0A0D0A00010002000400060051
:103A800008000A000C001000200040008000000127
:103A900001010103070100000804020408010101FB
:103AA00000000000010203040102030406070809E4
:103AB000D03A0008000000201C000000FE3500087D
:103AC000EC3A00081C000020F40400000E36000848
:103AD00000000000010000001000000000000000D5
:0C3AE0000090D0030090D0030000000014
:04000005080002AD40
:00000001FF
